:020000040801F1
:100000009820012061020108CB2B0108592A010820
:10001000C92B0108A1190108713101080000000075
:10002000000000000000000000000000A101010825
:10003000A319010800000000FD010108DD2B0108E3
:100040007B0201087B0201087B0201087B02010898
:100050007B0201087B0201087B0201087B02010888
:100060007B0201087B0201087B0201087B02010878
:100070007B0201087B0201087B0201087B02010868
:100080007B0201087B0201087B0201087B02010858
:100090007B0201087B0201087B0201087B02010848
:1000A0007B020108D12D01087B0201087B020108B7
:1000B0007B0201087B0201087B0201087B02010828
:1000C0007B0201087B0201087B0201087B02010818
:1000D0007B0201084D3101085931010865310108E1
:1000E0007B0201087B0201087B0201087B020108F8
:1000F0007B0201087B0201087B0201087B020108E8
:100100007B0201087B0201087B0201087B020108D7
:100110007B0201087B0201087B0201087B020108C7
:100120007B0201087B0201087B0201087B020108B7
:100130007B0201087B0201087B0201087B020108A7
:100140007B0201087B0201087B0201087B02010897
:100150007B0201087B0201087B0201087B02010887
:100160007B0201087B0201087B0201087B02010877
:100170007B0201087B0201087B02010800000000ED
:100180007B0201087B020108DFF810D000F00CFBB5
:1001900000480047CD3C0108AFF3008098200120C3
:1001A0002C4B19680868B0E8F04F80F30988BFF35A
:1001B0006F8F4FF0000080F311887047000000003F
:1001C00008480068006880F308884FF0000080F35A
:1001D000148862B661B6BFF34F8FBFF36F8F00DF35
:1001E00000BF00BF08ED00E0DFF80C00016841F43B
:1001F00070010160704700BF88ED00E0EFF30980F7
:10020000BFF36F8F134B1A681EF0100F08BF20ED5D
:10021000108A20E9F04F106009B44FF0500080F3CD
:100220001188BFF34F8FBFF36F8F04F01BFE4FF0A9
:10023000000080F3118809BC19680868B0E8F04F25
:100240001EF0100F08BFB0EC108A80F30988BFF3CE
:100250006F8F70471C000020EFF30580704700008F
:100260000648804706480047FEE7FEE7FEE7FEE750
:10027000FEE7FEE7FEE7FEE7FEE7FEE78D2C01085E
:10028000890101082DE9F05F0546002092469B4652
:1002900088460646814640241BE02846414647469C
:1002A000224600F020F853465A46C01A914110D316
:1002B00011461846224600F0B0F82D1A67EB0108E7
:1002C0004F4622460120002100F0A7F817EB000955
:1002D0004E41201EA4F10104DFDC484631462A4687
:1002E0004346BDE8F09F202A04DB203A21FA02F0C1
:1002F0000021704721FA02F3D040C2F12002914060
:1003000008431946704700000649074A08685043E9
:1003100043F2390210440860400870470149086000
:1003200070470000BC0000206D4EC64140EA01034A
:100330009B0703D009E008C9121F08C0042AFAD29B
:1003400003E011F8013B00F8013B521EF9D270475F
:10035000D2B201E000F8012B491EFBD27047002207
:10036000F6E710B513460A4604461946FFF7F0FFB4
:10037000204610BD10B5044604E00B7800F8013BA0
:1003800003B1491C521EF8D2204610BD421C10F881
:10039000011B0029FBD1801A704710B5002200E034
:1003A000521C835C8C5CA34201D1002BF8D1D8B2E3
:1003B000E1B2401A10BD30B504460020034600E00B
:1003C0005B1C934203D2E05CCD5C401BF8D030BD97
:1003D00030B505460020034600E05B1C934205D281
:1003E000EC5CC85C201A01D1002CF6D130BD30B5D0
:1003F0000B46014600202022012409E021FA02F5E3
:100400009D4205D303FA02F5491B04FA02F528447C
:10041000151EA2F10102F1DC30BD202A04DB203AD6
:1004200000FA02F1002070479140C2F1200320FA47
:1004300003F31943904070472DE9FE4F804681EA4F
:100440000300C00F0C46009021F0004123F000454E
:10045000B8EB0200A94105D24046214690461C4611
:100460000B46024623F00040104347D0270DC7F348
:100470000A00C3F30A510290401A019040286BDA37
:10048000C3F3130040F4801B0098924620B1002370
:10049000D2EB030A63EB0B0B01985946C0F1400203
:1004A0005046FFF7BAFF06460D4650465946019A98
:1004B00000F08CF910EB08006141002487EA11522A
:1004C00084EAE7731A4340D0009A62B3019A012A82
:1004D0004FEA075215DC001B61EB02014FF00042AE
:1004E00002EA0752CDE90042001C41F58011324674
:1004F0002B4600F08CF903B0BDE8F08F4046214652
:10050000F9E7001B61EB0201001C41F580130018A4
:100510005B412018A2F5001747EB030140EAD570B4
:10052000B6196D4111E06D084FEA360645EAC0750F
:100530004FEA0752001B61EB0201001C41F58011DC
:1005400049084FEA30000019514132462B4603B0AA
:10055000BDE8F04F00F04CB90098012240000023A4
:10056000D0EB020263EBE073009821464FEAE0749F
:10057000B8EB000061EB0401E9E783F000435BE7BF
:1005800081F0004158E72DE9FE4F81EA030404F0B1
:10059000004421F0004100944FF0000B23F0004391
:1005A00050EA01045ED052EA03045BD0C3F30A545C
:1005B000C1F30A552C44A4F2F3340194A0FB025475
:1005C000C1F3130141F48011C3F3130343F4801307
:1005D00001FB024400FB034E840A970A44EA81545B
:1005E00047EA8357A4FB076802958D0A05FB078538
:1005F0004FEA932C04FB0C542705029D4FEA065842
:1006000047EA1637B5EB08056EEB070C870E920E1E
:1006100047EA811742EA8312A7FB0201B6EB0B01FE
:1006200064EB00042B0D43EA0C335E1844EB1C50C2
:10063000DA465146E7FB0201C5F313044FEA0B33D8
:1006400043EA14534FEA0432019C43EA0603A4F13F
:100650000C040294009CCDE900B400F0D8F803B07B
:10066000BDE8F08F00200146F9E72DE9F04D81EA61
:10067000030404F0004B21F0004514464FF0000A3B
:1006800023F0004150EA050220D054EA01021DD0B7
:10069000C5F30A570246C5F31303C1F31300C1F3B0
:1006A0000A5640F4801543F48013A7EB0608101B8C
:1006B000D64608F2FD3873EB050002D308F10108B5
:1006C00001E092185B41B8F1000F03DA0020014607
:1006D000BDE8F08D00204FF48011064684460EE000
:1006E000171B73EB050705D3121B63EB05030643CA
:1006F0004CEA010C49084FEA300092185B4150EA7D
:100700000107EDD152EA030012D082EA040083EA25
:100710000501084305D0101BAB4106D2012200237E
:1007200006E000224FF0004302E06FF00102531098
:100730001AEB06004CEB085110EB0A0041EB0B01E1
:10074000BDE8F04D00F054B8C1F30A52C1F31301F3
:1007500040F2FF3341F480119A4202DA0020014650
:10076000704740F233439A42A2F2334202DC5242D3
:10077000FFF7B9BDFFF751BE30B5041E71F100049B
:1007800004DB4FF00044404264EB0101141E73F19E
:10079000000405DB1C464FF00043524263EB0403A8
:1007A000994208BF904230BD064C074D06E0E06814
:1007B00040F0010394E8070098471034AC42F6D3A8
:1007C000FFF7E6FC2061010840610108202A06DBF2
:1007D000CB17203A41FA02F043EAE07306E041FA0F
:1007E00002F3D040C2F120029140084319467047FD
:1007F00010B5141E73F1000408DA401C41F1000129
:1008000092185B411A4301D120F0010010BD2DE97F
:10081000F04D92469B4611B1B1FA81F202E0B0FA76
:1008200080F220329046FFF7F8FD04460F4640EA7A
:100830000A0041EA0B0153465A46084313D01146B9
:1008400053EA010019D0C8F140025046FFF74BFDB2
:1008500005460E46504659464246FFF7DEFD084320
:1008600005D0012004E020463946BDE8F08D002087
:10087000054346EAE0762C4337430A986305E40AC9
:10088000A0EB08000022FD0A44EA47540A3002D5D2
:1008900000200146E9E7010510196941DDE9084535
:1008A00000196941BDE8F04DA2E710B5040008D079
:1008B00003220021012004F0CBFB206018B10020AE
:1008C00010BD042010BD092010BD10B50446FFF76F
:1008D0001BFD4FF6FF7190FBF1F201FB120020802F
:1008E000002010BD10B5040004D004F051FF2060BA
:1008F000002010BD042010BD10B5040006D001205A
:1009000004F09BFB206018B1002010BD042010BD36
:10091000092010BD10B518B104F0D8F8002010BDA2
:10092000042010BD10B538B14FF0FF3104F0D4FDF4
:10093000012803D0092010BD042010BD002010BDE7
:1009400010B540B100231A46194604F019FC0128DD
:1009500003D0092010BD042010BD002010BD10B52B
:10096000140006D0002204F073FB206018B10020B0
:1009700010BD042010BD092010BD10B518B104F041
:10098000A5F8002010BD042010BD10B50C4628B1FC
:1009900024B103F02EFF2060002010BD042010BD04
:1009A00010B518B111B1531C02D003E0042010BDE2
:1009B0004FF0FF3204F0F4FC012804D008B103200A
:1009C00010BD122010BD002010BD10B520B10021B7
:1009D00004F092FB002010BD042010BD10B518B12A
:1009E00011B1531C02D003E0042010BD4FF0FF32C0
:1009F000002304F0C5FB012804D008B1032010BD7A
:100A0000112010BD002010BD10B5084B002200BF02
:100A100053F832401CB1521C202AF9DB10BD43F8B8
:100A2000320003EBC200818010BD0000980F01204E
:100A300010B50C0001464FF0FF3005D004F0E0FA8D
:100A4000206018B1002010BD042010BD092010BD89
:100A500010B518B104F03AF8002010BD042010BD04
:100A600010B540B100231A46194604F089FB01284D
:100A700003D0092010BD042010BD002010BD10B50A
:100A800058B100224B1C0AD001B10A46114604F0AD
:100A900023FD012806D0092010BD042010BD4FF011
:100AA000FF32F3E7002010BD10B54FF0FF31FFF724
:100AB000E6FF002010BD10B504000AD004F004FACF
:100AC000206004F007FA606003F0A6FEA06000203A
:100AD00010BD042010BD00002DE9F84F0D460600A2
:100AE00011D085B1286800EBC000800003F0DEFD66
:100AF00004000BD06A46296803F094FE01460020EA
:100B0000DFF888903AE00420BDE8F88F0920FBE781
:100B100000EBC00304EB8302C0EBC007D2F804C0B3
:100B200046F827C006EB87079A46B2F820C0A7F818
:100B300004C054F82AC0002359F83380E04503D19B
:100B400009EBC3039B8803E05B1C202BF4DB002331
:100B5000FB80009B3BB1D2F818C04FF064080CFB3F
:100B600008FCBCFBF3F3BB609369FB60137C3B7434
:100B700054F82A307B61127B3A76401C8842C7D3F6
:100B80002046296003F020FF0020BDE7980F0120D8
:100B900010B504464FF480710548FFF7E0FB4FF4B1
:100BA0007A704443B4FBF0F002494860002010BD65
:100BB000980F0120B00000201CB50B4C206858B9DC
:100BC00021460120CDE900010023802207A1094828
:100BD00004F078FD012801D009201CBD8021206887
:100BE000FFF712FF00201CBDB00000205379734DA9
:100BF0006F6E00000D1301082DE9F04186B000244E
:100C00000E460C9D98460294039404940594910713
:100C100017D0012101EB920720B101460F2202A853
:100C2000FFF7A8FBBAB2434602A93046CDE900451A
:100C300004F048FD012800D02C6006B00020BDE87B
:100C4000F0819708E8E710B518B103F0B3FF002072
:100C500010BD042010BD10B500B9012003F084FFC1
:100C6000002010BD70B5064CD4E9191049698847B9
:100C7000D4E91910257889698847284670BD000095
:100C8000B80E012070B5094C0546D4E91910496920
:100C900088470748257050F8251006A002F06AFA28
:100CA000D4E9191089698847002070BDB80E012069
:100CB000FC5B0108416F6C6B6D6520636F72652092
:100CC0007374617465207472616E736974696F6E98
:100CD000656420746F3A2025730D0A0070B50446D0
:100CE0001F220D49FFF774FB04F13005203428B9A9
:100CF00020222946204600F0A1FD30B12946204699
:100D000000F00EFE18B1012070BD04A000E011A09B
:100D100002F030FA002070BDDC5B01084661696CAE
:100D2000656420746F2067656E6572617465206B01
:100D3000657920666F72207573657220696E666FC3
:100D400020766572696669636174696F6E2E0D0A3B
:100D5000000000004661696C656420746F20766550
:100D600072696679206B657920666F72207573658C
:100D70007220696E666F2076657269666963617458
:100D8000696F6E2E0D0A000070B5114C06460D46B7
:100D9000A07F50B102F02AFF002807D18EB1E18A6E
:100DA000208B814203D3081A04E00A4870BDA28A4E
:100DB000101A084480B264214843A18AB0FBF1F0C4
:100DC00030700DB1207F2870BDE8704002F020BF68
:100DD000400F012004000700F8B53C4D0646A87FEF
:100DE00008B13B48F8BD76B1308860B1707950B138
:100DF00000F0D6FA040009D03448E168083088478A
:100E000038B13448F8BD3248801EF8BD3048401E25
:100E1000F8BD2E49E2690C3100209047070002D04E
:100E2000A868216921E03088216CC0EBC0008000F7
:100E30008847284F68607F1C90B17079216C8000D2
:100E400088472860A0B1707968833088A882002024
:100E5000E8822883A8830127AF77E877014610E06E
:100E60002169A8688847616AE86888473846F8BDFC
:100E7000616C68688847F3E72A6842F82100491CDA
:100E800089B26A8B8A42F7D8B079E8B10F48124923
:100E90001030009072882668002310A0B04706002A
:100EA00011D0616C28688847616C6868884721693F
:100EB000A8688847616AE868884720210348FFF7E7
:100EC0004EFA3046F8BDEF770020F8BD400F012004
:100ED00003000700030005003D3B01084576656EF1
:100EE000745461736B000000F8B51C4C0746A07F7A
:100EF000D8B100F055FA05001AD0696B68468847EA
:100F00000098786002F072FE00280DD1E08AA28A73
:100F1000411CB1FBF2F302FB13118EB2218BB142E3
:100F200009D102F075FE0E48F8BD0D48801EF8BDCF
:100F30000B48C01EF8BD6168C0EBC00001EB80002B
:100F40001C223946FFF7F2F9E68202F061FEE07FEB
:100F500010B1296BE06888470020F8BD400F0120E0
:100F60000500070070B5194C0546A07F40B14DB192
:100F700002F03CFE002804D10021628B20680EE0C4
:100F8000134870BD1248C01E70BD00BF50F821301C
:100F9000AB4203D102F03CFE002070BD491C8A42E6
:100FA000F4DC002104E000BF50F821303BB1491CC3
:100FB0008A42F9DC02F02CFE0548801C70BD40F826
:100FC0002150A08B401CA083E4E70000400F0120CB
:100FD00004000700042070470F4B10B51978012951
:100FE00005D00EA002F0C6F84FF0061010BD93F821
:100FF0002C10052904D312A002F0BCF8194810BD2A
:101000005C7864F3070203EBC104491C83F82C10DD
:10101000C4E90102002010BD600F0120416F6C6B1C
:101020006D654C6F67676572206973206E6F742001
:10103000696E697469616C697A65640D0A00000003
:10104000416F6C6B6D654C6F67676572206F75746F
:1010500070757420636F756E742069732066756C8B
:101060006C0D0A0007000600F8B500F099F91B4E58
:101070001B4F05002DD11BA002F07CF80020F8BD0D
:1010800000200090421E6B6D69467868984718B141
:101090001EA002F06FF819E0FFF7E4FD902812D1CE
:1010A00000240CE0009806EBC4020178137A994200
:1010B00003D841885268001D9047641CE4B296F83A
:1010C0002C00A042EED8696C00988847A9680A20D5
:1010D000884738780028D3D1F8BD0000600F012080
:1010E000A0000020416F6C6B6D65506C6174666F81
:1010F000726D5F4765744F53414C48616E646C6517
:10110000206973206572726F720D0A004765742042
:101110007265636569766520735F416F6C6B6D65A1
:101120004C6F67676572426C6F636B51756575656F
:10113000206973206572726F72210D0A0000000031
:10114000F8B5054600F02CF9040005D0E16819480F
:10115000884718B118A00EE021A00CE0154AA80895
:10116000121FA36C04219847124D083D38B1216924
:10117000A868884724A001F0FDFF0420F8BD0D48B1
:101180004FF40062001D00902668002329492AA020
:10119000B04758B12169A8688847E16C68688847FA
:1011A00004462BA001F0E6FF2046F8BD0120287080
:1011B0000020F8BDA8000020735F416F6C6B6D6567
:1011C0004C6F676765724D757465782063726561F1
:1011D0007465206973206572726F72210D0A0000B8
:1011E000416F6C6B6D65506C6174666F726D5F47BB
:1011F00065744F53414C48616E646C65206973207F
:101200006572726F720D0A00735F416F6C6B6D6572
:101210004C6F67676572426C6F636B51756575657E
:1012200020637265617465206973206572726F72E4
:10123000210D0A0069100108416F6C6B6D656C6FC0
:1012400067676572666C7573687461736B00000024
:10125000416F6C6B6D656C6F67676572666C7573FB
:10126000687461736B2063726561746520697320B3
:101270006572726F72210D0A0000000070B50F4C8C
:101280000546207820B10EA001F074FF154870BD0E
:1012900038210A48FFF763F8287860702879A07031
:1012A0006888FFF74DFF050004D00FA001F062FF32
:1012B000284670BD01202070002070BD600F012005
:1012C000416F6C6B6D654C6F676765722068617309
:1012D000206265656E20696E697469616C697A6502
:1012E000640D0A0005000600416F6C6B6D654C6F64
:1012F000676765725F427566666572496E697420DC
:101300006973206572726F720D0A00001D4F8EB0F6
:10131000142601A8FFF7CFFB0398C0EBC00006EB33
:101320008005284603F0C2F9040027D02946FFF7BC
:1013300016F801AB93E8070084E807000398E06023
:1013400004F11400206103990C910CA9FFF7C4FB70
:1013500088B90D48059004F01BFA069007A90020F3
:1013600081E8310009A00A9001208DF82C0005A821
:10137000FFF7BAFD10B1204603F026FB786803F0B2
:10138000F3FBC6E7B0000020060001005379737438
:10139000656D4D6F6E69746F725265706F72740017
:1013A000044810B50068002803D103A001F0E2FE54
:1013B000002010BD9C0000204F53414C2068616EFE
:1013C000646C6572206973206E6F74207265676942
:1013D0007374657265642E0D0A00000010B518B1B3
:1013E00004490860002010BD03A001F0C3FE4FF0C7
:1013F000011010BD9C0000204F53414C2068616ECD
:10140000646C6572206973206E6F74207265676901
:101410007374657265642E0D0A0000000A4610B5EB
:1014200001464FF0FF33024801F0C5FA002010BD1D
:101430000C010020B8B06022474901A8FEF776FFF2
:10144000454C083CD4E90001CDE93401FFF7C2FD69
:10145000C0EB00104FF6FF7101EA40006834ADF8B0
:10146000D20094E8070031AB83E8070001A8FFF73A
:10147000B5FF08B139A045E040A001F07BFE19ACF2
:1014800060212046FEF76BFF1F2243A12046FEF796
:1014900071FF44A0016821914068229043A0016837
:1014A0002591416826910089ADF89C0000208DF8B7
:1014B0009E0041A001682D918088ADF8B80040A041
:1014C00001F058FE19A800F035F908B144A019E060
:1014D0004AA001F04FFE34A8FFF7D0FE08B14EA09D
:1014E00010E055A001F046FE5A48FFF775FD08B11F
:1014F00059A007E061A001F03DFE31A8FFF76CFCA8
:1015000020B166A001F036FE02F07AFC6AA001F07C
:1015100031FE00F0EDF841F28830FFF739FBFFF7BC
:101520004BFB6C480090019C00234FF400626A4919
:101530006AA0A0476D4E4FF4FA744FF40075039AF9
:10154000204690472946304600F082FB36A968467F
:10155000FFF71AFCF3E7000048600108726567694D
:1015600073746572206F73616C2068616E646C6562
:1015700072206572726F720D0A000000416F6C6B11
:101580006D654F53414C20696E6974206973204F1B
:101590004B210D0A00000000416F6C6B6D655344D8
:1015A0004B00000037373839383738006A696E69C0
:1015B0007461696D65690000312E302E30000000C5
:1015C000416F6C6B6D655F46696C6C496E557365F8
:1015D00072496E666F206973204F4B210D0A00001F
:1015E000416F6C6B6D655F436F72655F496E6974C7
:1015F000206973206572726F720D0A00416F6C6B07
:101600006D655F436F72655F496E69742069732011
:101610004F4B210D0A000000416F6C6B6D654C6FE4
:10162000676765725F496E697420697320657272BD
:101630006F720D0A00000000416F6C6B6D654C6F9E
:10164000676765725F496E6974206973204F4B212B
:101650000D0A00001D140108416F6C6B6D654C6F25
:10166000676765725F4164644F7574707574206953
:1016700073206572726F720D0A000000416F6C6B0F
:101680006D654C6F676765725F4164644F75747018
:101690007574206973204F4B210D0A00416F6C6BEC
:1016A0006D654576656E745F496E69742069732057
:1016B0006572726F720D0A00416F6C6B6D654576D5
:1016C000656E745F496E6974206973204F4B210DFC
:1016D0000A000000B8000020293B01086576656E0D
:1016E000745F6765745F7461736B0000001402407F
:1016F00010B59020FFF7C6FA002803D002A001F031
:1017000039FD042010BD00004661696C65642074D9
:101710006F207472616E736974696F6E20746F20CC
:1017200052554E4E494E472073746174652E0D0A12
:101730000000000070B51B4D0446287820B11AA0A7
:1017400001F018FD042070BD214ECCB12046FFF7FA
:10175000C5FAA8B1214660222C46681CFEF7E6FDBA
:10176000FFF71EFE6066416B0E486C308847606E66
:10177000C1680C4868308847040006D015A00AE00C
:101780001BA001F0F7FC304670BD0120FFF77AFA8C
:10179000040004D01FA001F0EDFC204670BD002025
:1017A00070BD0000B80E0120416F6C6B6D65206349
:1017B0006F726520697320616C726561647920695C
:1017C0006E697469616C697A65642E0D0A000000A7
:1017D000010002004661696C656420746F206372C9
:1017E00065617465206D757465782E0D0A000000C2
:1017F0005573657220696E666F726D6174696F6E84
:10180000206973206E6F742076616C69642E0D0AF6
:10181000000000004661696C656420746F2074727A
:10182000616E736974696F6E20746F20494E4954FC
:101830002073746174652E0D0A0000002DE9F04FCD
:101840008BB09246894604004BD0B9F1000F48D0C6
:10185000BAF1080F45D307A9204602F051FA2046F5
:10186000FEF794FD0146204602F008F9C0F3090591
:101870007C200521B0FBF1F0401C07AF4FF00F08B2
:101880006E464FF0000B19282BD80022224C104630
:1018900011461346083017F803C04CEA022209E04B
:1018A000401F22FA00FC0CF01F0C14F80CC006F8C4
:1018B00001C0491C0528F3DA5B1C4345EAD3002824
:1018C00007DDC0F10500824002F01F00205C70546B
:1018D000491C5F4606F801B0182902D1BAF11E0F63
:1018E00003D200200BB0BDE8F08F0CA04E4600885C
:1018F00026F8020B312006F8010B18226946304603
:10190000FEF714FD6809205C307605F01F00205CAE
:101910007076B7760120E5E71C600108414B310085
:1019200070B588B006000C4632D08CB30846FEF77E
:101930002DFD1D282CD1032218A12046FEF73BFDCA
:1019400030BBE07E02F08BF80546207F02F087F87E
:10195000002D1DDB00281BDB05F01F0161F35F106C
:101960000546202269463046FFF768FF002810D060
:101970003046FEF70BFD0146304602F07FF8C0F31B
:101980000900A84204D121466846FEF706FD10B1C1
:10199000002008B070BD0120FBE70000414B310082
:1019A000FEE7704772B6FEE72DE9F0410446876D09
:1019B00000F05CF9064694F835000025022806D0B0
:1019C0008020606584F834500120BDE8F0812068F3
:1019D000016821F0160101602068416921F0800151
:1019E0004161206C08B9A06C20B12068016821F029
:1019F000080101602068016821F0010101600CE02C
:101A000000F034F9801B052807D9202060650320E9
:101A100084F8350084F83450D7E720680068C007A0
:101A2000EED194F85C103F208840B860012084F823
:101A3000350084F834500020C7E790F835100229AB
:101A400003D08021416501207047052180F83510C1
:101A50000068016821F0010101600020704700006A
:101A60002DE9F84FDFF8BCA10022012503264FF035
:101A70000F090AF1040BAAF1040E00BF0B6805FA66
:101A800002F42340A34270D10F7907F00307012F1E
:101A900001D0022F16D187684FEA420806FA08FCE7
:101AA00027EA0C07D1F80CC00CFA08FC4CEA070C2A
:101AB000C0F808C04768A7430C79C4F300149440E9
:101AC0003C4344600C79E443A4070AD0C4684FEA5D
:101AD000420C06FA0CF7BC438F6807FA0CF7274351
:101AE000C7600C7904F00304022C12D1D40800EB77
:101AF000840CDCF820405707FF0E09FA07F824EAA7
:101B00000804D1F8108008FA07F848EA0408CCF86D
:101B1000208004684FEA420C06FA0CF7BC430F79A8
:101B200007F0030707FA0CF7274307604C6814F423
:101B3000403F70D03C4C276847F4804727602468BA
:101B400022F0030704F480440094384C07EB040CA3
:101B5000DCF8084897074FEA177809FA08F7BC43FA
:101B6000334FB84202D1002724E054E0314FB8424D
:101B700001D101271EE0304FB84201D1022719E000
:101B80002E4FB84201D1032714E02D4FB84201D1A6
:101B900004270FE02B4FB84201D105270AE02A4F56
:101BA000B84201D1062705E0284FB84201D10727E6
:101BB00000E0082707FA08F72743CCF80878DAF896
:101BC00000405746D1F804C09C435FEACC2C00D5B6
:101BD0001C433C60DBF800405F46D1F804C09C43E6
:101BE0005FEA8C2C00D51C433C60DEF80040774651
:101BF000D1F804C09C435FEA8C3C00D51C433C6098
:101C0000084F083F3C68D1F804C09C435FEACC3CD5
:101C100000D51C433C60521C102AFFF42FAFBDE8D6
:101C2000F88F0000083C0140443802400030014079
:101C3000000002400004024000080240000C024084
:101C4000001002400014024000180240001C024034
:101C5000426921EA02030A4043EA02418161704776
:101C60000AB1816170470904FBE700000148806800
:101C7000704700000C00002002488168027811447F
:101C8000816070470C0000200B4810B5016841F4DA
:101C900000710160016841F480610160016841F4F4
:101CA00080710160032000F099F80F2000F006F821
:101CB00000F04AF8002010BD003C024030B5054657
:101CC0001C4887B00024016841F4003101600068BD
:101CD00006A900F40030009001A800F02BF900F0F4
:101CE00059F915494000B0FBF1F11548134A491E56
:101CF000026040F2E732C0E90324C0E901148461C4
:101D000000F040FB040012D10D4800F069FB040014
:101D10000DD1192000F034F8102D07D200222946E9
:101D2000192000F03BF80748056000E0012407B0E7
:101D3000204630BD4438024040420F00004401407C
:101D40009C010020100000200C4882B0016841F482
:101D500080410160006800F4804000900748001F47
:101D6000016841F0805101600068002200F080505D
:101D700000900F21901E02B000F010B844380240CD
:101D8000002809DB00F01F0201219140400980007A
:101D900000F1E020C0F8001170470000F0B40E4BD5
:101DA0001B680C46C3F30223C3F10705042D00D9B9
:101DB0000425191D072901D2002300E0DB1E01269E
:101DC00006FA05F1491E214099409E40761E1640B4
:101DD0003143F0BC01F0DEB90CED00E0064900F043
:101DE000070208684FF6FF03184040EA0220034A42
:101DF00010430860704700000CED00E00000FA0599
:101E00002DE9F0470E46050065D0DFF81481D8F8BB
:101E10000000F7B200F00700B04207D288F8007067
:101E2000D8F8000000F00700B04254D128683D4CBB
:101E3000810712D5400703D5206840F4E0502060A8
:101E40002878000703D5206840F4604020602068AF
:101E5000A96820F0F000084320602878C0072DD042
:101E6000304968680839012812D0022813D00328A5
:101E700011D00968890700292DDA216821F00301B2
:101E800001432160FFF7F2FE814641F2883A0EE0FD
:101E900009688903EFE709688901ECE7FFF7E6FEC7
:101EA000A0EB0901514502D90320BDE8F087206865
:101EB000696800F00C00B0EB810FEFD1D8F800108A
:101EC000404601F00701B14207D90770006800F0F1
:101ED0000700B04201D00120E7E72878400705D588
:101EE0002068E96820F4E050084320602878000763
:101EF00006D52068296920F4604040EAC1002060CE
:101F000000F058F82168084AC1F30311515CC84039
:101F10000649086006480068FFF7D0FE0020C4E7C5
:101F2000003C024008380240C45B01081800002051
:101F3000100000200F2202600C4A136803F0030314
:101F40004360136803F0F0038360136803F4E05305
:101F5000C36012684FF4E05303EAD20202610448FE
:101F6000006800F007000860704700000838024071
:101F7000003C02400448054900680968044AC1F36E
:101F80008221515CC8407047180000200838024088
:101F9000D45B01080448054900680968044AC1F394
:101FA0004231515CC8407047180000200838024098
:101FB000D45B0108154810B5006810F00C021448F5
:101FC00013D04110042A0FD0082A0ED10F4C241F21
:101FD0002268236802F03F025B0207D52068C0F345
:101FE0008810A0FB010106E0084610BD2168C1F37E
:101FF0008811A1FB00010023FEF744F92168C1F319
:102000000141491C4900B0FBF1F010BD0838024005
:102010000024F4002DE9F84F04006ED02078DFF89A
:102020004C93C007A9F104054AD009F104000168E6
:10203000C1F38101012908D00068C0F381000228A2
:102040000AD1D9F80000400206D52868800337D5A8
:1020500060680028E1D033E06068B0F5803F10D0C0
:10206000B0F5A02F286810D020F4803028602868B0
:1020700020F4802028606068A8B1FFF7F7FD0646CD
:102080000DE0286840F48030F4E740F480202860B8
:10209000F7E700BFFFF7EAFD801B642873D82868C4
:1020A0008003F7D50CE0FFF7E1FD064605E000BF31
:1020B000FFF7DCFD801B6428F0D828688003F7D484
:1020C0002078DFF8AC8280074FF0000A3ED5A748A1
:1020D000001D016811F00C0F08D00068C0F38100EA
:1020E00002280BD1D9F80000400207D428688007E5
:1020F00016D5E068012800D112E033E1E068B8B1FC
:102100000120C8F80000FFF7B1FD064605E000BF5A
:10211000FFF7ACFD801B0228C0D828688007F7D5E0
:102120002868216920F0F80040EAC10028600DE02D
:10213000C8F800A0FFF79AFD064604E0FFF796FDF9
:10214000801B02281FD828688007F7D42078000752
:1021500022D5864F87486169703771B101210160CE
:10216000FFF784FD064604E0FFF780FD801B022890
:1021700009D838688007F7D50EE0C0F800A0FFF74F
:1021800075FD064605E082E0FFF770FD801B022822
:102190007DD838688007F7D42078400768D5DFF805
:1021A000CCB100270BF13C0BDBF80000C0000BD4D6
:1021B000DBF8001041F08051CBF80010DBF8000094
:1021C000012700F0805000906B4E3068C00510D49D
:1021D000306840F480703060FFF748FD009005E003
:1021E000FFF744FD0099401A022850D83068C00516
:1021F000F6D55E4EA0686C3601280FD005283068F1
:1022000010D020F001003060306820F00400306011
:10221000A068B8B1FFF72AFD00900FE0306840F0E9
:102220000100F4E740F004003060F7E7FFF71EFD1F
:102230000099411A41F28830814266D8306880079F
:10224000F4D50EE0FFF712FD009007E0FFF70EFD5A
:102250000099411A41F28830814256D8306880078F
:10226000F4D42FB1DBF8001021F08051CBF800102E
:10227000A069C8B33D49091D0968C1F3810102295C
:102280004AD00228504607D0C8F8600000E03CE081
:10229000FFF7ECFC04463BE04746C8F86000FFF758
:1022A000E5FC064605E000BFFFF7E0FC801B0228C6
:1022B0002BD828688001F7D4D4E907010843A16A24
:1022C0002E4A490802EB0141626A41EA8211084341
:1022D00094F82C1040EA0161C9F80010012038661A
:1022E000FFF7C4FC044606E03EE000BFFFF7BEFC7B
:1022F000001B022809D828688001F7D534E000BF08
:10230000FFF7B4FC001B022802D90320BDE8F88FB8
:1023100028688001F4D427E00128F7D0D9F800001C
:10232000E26900F4800191421CD1226A00F03F0171
:10233000914217D147F6C071626A0140B1EB821F2A
:1023400010D1A26A4FF0FF3300F4403103EB520288
:10235000B1EB024F06D194F82C1000F07060B0EB96
:10236000016F01D00120D1E70020CFE704380240FF
:1023700000004742800E4742007000400000FFFF0F
:102380007047704710B5040003D094F83D0010B1B9
:1023900007E0012010BD002084F83C00204600F03A
:1023A0001EF8022084F83D00211D206800F016FD73
:1023B000012084F8460084F83E0084F83F0084F849
:1023C000400084F8410084F8420084F8430084F817
:1023D000440084F8450084F83D00002010BD70479B
:1023E00090F83D10012901D001207047022180F8AA
:1023F0003D100168CA6842F00102CA6000681149D4
:10240000884214D0B0F1804F11D00F4988420ED0CD
:102410000E4988420BD00E49884208D00D498842A7
:1024200005D00D49884202D00C49884204D1816808
:1024300001F00701062903D0016841F001010160A4
:1024400000207047000001400004004000080040E8
:10245000000C004000040140004001400018004012
:1024600070472DE9F04104460068C66805694FF0E1
:102470000007A90713D5B10711D5F91E0161012085
:102480002077206880698007204602D0FFF7E8FFA8
:1024900004E000F07EF8204600F07CF8277768071B
:1024A00016D5700714D521686FF00400086102206A
:1024B00020772068806910F4407F204602D0FFF723
:1024C000CFFF04E000F065F8204600F063F82777BE
:1024D000280715D5300713D521686FF0080008616B
:1024E000042020772068C0698007204602D0FFF7CB
:1024F000B7FF04E000F04DF8204600F04BF82777D6
:10250000E80616D5F00614D521686FF010000861B2
:10251000082020772068C06910F4407F204602D050
:10252000FFF79EFF04E000F034F8204600F032F898
:102530002777E80708D0F00706D021686FF0010080
:102540000861204600F028F8280608D5300606D590
:1025500021686FF0800008612046FFF711FF6806D0
:1025600008D5700606D521686FF040000861204646
:1025700000F01CF8A8060AD5B00608D521686FF04F
:10258000200008612046BDE8F041FFF7FABEBDE833
:10259000F08170477047000000680349884201D10C
:1025A000FFF76ABB70470000004401407047704766
:1025B00070470000F8B5016804460868CA684B69AE
:1025C00010F00F0F4FF0000559D003F0010602F490
:1025D0009077374365D0C10705D0D10503D5616C2D
:1025E00041F001016164410705D5D90703D0616C51
:1025F00041F002016164810705D5D90703D0616C00
:1026000041F004016164010707D502F02001314364
:1026100003D0616C41F008016164616C00293AD01B
:10262000800604D5900602D5204600F06DFC206897
:102630004069616CC0F38010090700D460B3204684
:1026400000F03BFC20684069400621D5206814302A
:1026500050E8001F21F0400140E80012002AF5D1A7
:10266000E06BA8B172490165E06BFFF7E6F900285D
:1026700011D0E06B016D01B0BDE8F0400847830662
:102680000FD593060DD52046BDE8F84000F03CBCC0
:102690002046FFF78DFFF8BD2046FFF789FF6564F0
:1026A000F8BD266B2023012E7ED1C6067CD5D6062A
:1026B0007AD508684868009048694FF002064006DD
:1026C0004DD5E26B106840684FF480770004000C31
:1026D0003AD0A18D814237D9E085D069B8422DD05A
:1026E00020680C3050E8001F21F4807140E800128F
:1026F000002AF5D12068143050E8001F21F00101B4
:1027000040E80012002AF5D12068143050E8001F7C
:1027100021F0400140E80012002AF5D184F842304F
:10272000256320680C3050E8001F21F0100140E8BC
:102730000012002AF5D1E06BFFF736F96663A08D31
:10274000E18D401A81B206E0A18D8142A8D1D06905
:10275000B842A5D166632046FFF729FFF8BDA08DDA
:10276000E18D401A81B2E08D0028F7D00029F5D024
:1027700020680C3050E8002F22F4907240E80027C7
:10278000002FF5D12068143050E8002F22F001020C
:1027900040E80027002FF5D184F8423025632068F7
:1027A0000C3050E8002F00E006E022F0100240E874
:1027B0000023002BF3D1CDE705062BD5150629D52F
:1027C00094F841002128C9D1A068B0F5805F01D1FB
:1027D0002069B0B1206A411C2162216800784860FC
:1027E000E08C401E0004000CE084B7D12068C16872
:1027F00021F08001C1602068C16841F04001C160E2
:10280000F8BD206A0088C0F308004860206A801C78
:102810002062E5E74006F3D55006F1D5CA682046A8
:1028200022F04002CA6084F8413000F014F9F8BD8B
:10283000AD2E010870B5040004D094F841000025C5
:1028400010B106E0012070BD84F84050204600F031
:1028500023F8242084F841002068C16821F4005145
:10286000C160204600F0B2FB2068016921F490416C
:1028700001612068416921F02A0141612068C16835
:1028800041F40051C1606564202084F8410084F85F
:1028900042006563002070BDF0B587B00446142186
:1028A0006846FDF75CFD3D4B276800223C49022449
:1028B000032507263B489F4221D1394B14331F681B
:1028C00047F010071F601B6803F0100305930B68A7
:1028D00043F001030B60096802AB01F001010591AF
:1028E0006902CDE9001483E864006946FFF7B8F88F
:1028F000002205212520FFF751FA252024E0284B4E
:10290000DFF8A4C01033674522D11F6847F40037B1
:102910001F601B6803F4003305930B6843F0010349
:102920000B60096802AF01F0010105910C21CDE9AE
:10293000001487E864006946FFF792F80022052139
:102940002620FFF72BFA2620FFF71AFA07B0F0BD72
:1029500016488742FAD1186840F480201860186839
:1029600000F480200590086840F0020008600868C4
:1029700002AF00F0020005904FF44060CDE9000482
:1029800087E8640069460A48FFF76AF800220521D3
:102990002720FFF703FA2720D6E7000000100140A8
:1029A000303802400000024000440040004800402F
:1029B0000004024070472DE9F843044690F84100B6
:1029C000984616460D46202802D00220BDE8F8831E
:1029D00085B17EB100206064212084F84100FFF7BA
:1029E00045F9A6848146E684A0682027B0F5805F7B
:1029F00002D003E00120E9E7206910B12E4600254E
:102A00000EE000260CE08021204600F065FBA8B90E
:102A1000C6B116F8010B21684860E08C401EE084C6
:102A2000E08C4B464FF00002CDF800800028EAD140
:102A30004FF04001204600F04FFB40B184F8417058
:102A40000320C3E735F8020BC0F30800E3E784F87E
:102A500041700020BAE77047FEE7000010B50B4A4E
:102A600000210B4801F0D0F90A4C084A00212060EF
:102A70002432094801F0C8F9044A60604832002154
:102A8000064801F0C1F9A06010BD0000585B0108C4
:102A9000D52B010800000020B13C010835140108C5
:102AA00070B586B014216846FDF759FC1A48002518
:102AB000016841F020010160016801F020010591E9
:102AC000016841F080010160016801F08001059119
:102AD000016841F001010160016801F00101059107
:102AE000016841F00201016000680C4E00F0020034
:102AF0004FF4C0640590002221463046FFF7B0F83D
:102B00000120CDE900400220CDE90250694630465F
:102B1000FEF7A6FF06B070BD303802400014024038
:102B20000C4810B50A4901604FF4E13141600021C1
:102B300081600C22C160C0E904128161C161FFF7AC
:102B400079FE002803D0BDE81040FEF72BBF10BD72
:102B500000100140C40000200C4810B50A49016073
:102B60004FF4E1314160002181600C22C160C0E975
:102B700004128161C161FFF75DFE002803D0BDE84A
:102B80001040FEF70FBF10BD004400400C010020B4
:102B90000C4810B50A4901604FF4E1314160002151
:102BA00081600C22C160C0E904128161C161FFF73C
:102BB00041FE002803D0BDE81040FEF7F3BE10BD73
:102BC0000048004054010020FEE7FEE701F0FCBE93
:102BD00001F06CBD012001F0D7F8FBE710B54FF014
:102BE000E020006902F0C6FD012803D0BDE81040D6
:102BF00002F0F0B910BD000030B593B03021684646
:102C0000FDF7ADFB14210CA8FDF7A9FB1D4800251D
:102C1000016841F080510160006800F0805011901F
:102C20001948016841F4804101600068022400F401
:102C30008040119001200090000401908001CDE9B6
:102C4000064008AA0420A82182E813000B906846D9
:102C5000FFF7E0F908B172B6FEE70CA90F2081E892
:102C600031004FF4A0500F904FF480501090052188
:102C70000CA8FFF7C5F8002801D072B6FEE713B024
:102C800030BD00004038024000700040024801683A
:102C900041F470010160704788ED00E0FEB5A0F5D9
:102CA0008031891F3DD11C46DB68D4E900121DA08C
:102CB00000F060FA002531E0C5EBC500182221695B
:102CC00002EB80028A5C052A0ED2DFE802F00305DF
:102CD00007090B0021A208E022A206E023A204E0DB
:102CE00024A202E026A200E027A2082303EB80032F
:102CF000042606EB8006CB588E5B0096CDE90132A8
:102D0000062202EB80028B5A102202EB80028A5CC0
:102D100051F820101EA000F02DFA6D1CE068A842AA
:102D2000CAD8FEBD5B5379734D6F6E5D20486561F7
:102D30007020467265653A2025752C204D696E20FD
:102D4000457665723A2025752C205461736B2043BB
:102D50006F756E743A2025750A00000052756E6E0C
:102D6000696E67005265616479000000426C6F63B0
:102D70006B65640053757370656E64656400000074
:102D800044656C6574656400496E76616C696400C5
:102D90005461736B3A20252D313673205072693A95
:102DA0002025752C20537461636B3A2025752046CD
:102DB0007265653A2025752C204350553A202575BB
:102DC00025252C2053746174653A2025730A000070
:102DD0000148FFF746BB00009C010020F0B50268E7
:102DE000274B284D284E294F294C4FF0804C9842B4
:102DF00009D0604507D0A84205D0B04203D0B84200
:102E000001D0A04204D122F0700E4A6842EA0E02BC
:102E100098421BD0604519D0A84217D0B04215D0B7
:102E2000B84213D0A04211D01A4DA8420ED01A4D6C
:102E3000A8420BD0194DA84208D0194DA84205D080
:102E4000184DA84202D0184DA84203D122F4407573
:102E5000CA682A434D6922F080022A438D68C56200
:102E60000D688562984201D0A04201D109690163D1
:102E7000016841F004010160012141610260F0BD7F
:102E8000000001400004004000080040000C004029
:102E9000000401400040014000440140004801405E
:102EA00000180040001C00400020004010B5806B5E
:102EB0000021C185FFF77CFB10BD01680C3151E892
:102EC000002F22F4907241E80023002BF5D1016815
:102ED000143151E8002F22F0010241E80023002BB9
:102EE000F5D1016B012909D101680C3151E8002F9E
:102EF00022F0100241E80023002BF5D1202180F8B8
:102F0000421000210163704708B590F84210222951
:102F100001D0022008BD82684FF480539A4201D14B
:102F2000016921B1816A9A421BD04AB10AE0026864
:102F3000816A5268C2F308020A80816A891C08E02B
:102F4000026972B10268526802F07F020A70816AF7
:102F5000491C8162C18D491E0904090CC18503D039
:102F60001BE002685268F1E70168CA6822F020029B
:102F7000CA600168CA6822F48072CA6001684A693E
:102F800022F001024A61202180F8421000214163B1
:102F9000026B012A03D0FFF70DFD002008BD01637D
:102FA00001680C3151E8002F22F0100241E80023A3
:102FB000002BF5D101680A68D20602D50A68496873
:102FC0000091818DFFF7F3FAE7E7000070B5044642
:102FD00000680169E26821F44051114301612169EF
:102FE000A068E26908436169114308432168CA681F
:102FF00049F20C639A430243CA6020684169A2699E
:1030000021F440711143416131492068884202D066
:103010003049884202D1FEF7BDFF01E0FEF7AAFF6A
:10302000E2690023192164253226B2F5004F626857
:1030300028D0A0FB0101930F9200FDF723F9014670
:10304000B0FBF5F06FF01802504301EB800006EB87
:103050000010B0FBF5F000F0F002B1FBF5F002EB70
:103060000012B1FBF5F06FF01803584301EB80003C
:1030700006EB0010B0FBF5F000F00F0021681044E3
:10308000886070BDA0FB010192185B41FDF7FAF862
:103090000146B0FBF5F00201B1FBF5F06FF018034B
:1030A000584301EB800006EBC000B0FBF5F000F0E8
:1030B000F80002EB4002B1FBF5F0584301EB800051
:1030C00006EBC000B0FBF5F000F00700D6E700000B
:1030D00000100140001401402DE9F84398461746BE
:1030E0000D460446089E24E0701C22D0FEF7BEFD6B
:1030F000A0EB0800B0421AD8CEB12068C1684907D9
:1031000017D5802D15D0402D13D00168C94309076C
:103110000FD401680025406800902046FFF7CDFEDF
:103120000820606484F840500120BDE8F883032043
:10313000FBE72068006835EA000004D00020B842B0
:10314000D2D00020F1E70120F9E700000148FFF7A5
:1031500031BA0000C40000200148FFF72BBA00007C
:103160000C0100200148FFF725BA0000540100209F
:10317000FEE700000FB4054B10B503A9044A0298FE
:1031800000F0EAF810BC5DF814FB0000713C010887
:10319000C00000200907090E002804DB00F1E02030
:1031A00080F80014704700F00F0000F1E02080F874
:1031B000141D704702E008C8121F08C1002AFAD186
:1031C00070477047002001E001C1121F002AFBD1A7
:1031D000704700002DE9FF5F82B00021DDE9043077
:1031E000020DDDF840B0034318D044F61050A2F2AF
:1031F000FF3242431514119801281FD0A5EB0B0094
:10320000401C5FEA000A4FF000064E4FDFF838918D
:10321000B046504615D5CAF1000413E011980124B8
:103220004AA3012801D16FEA0B010298119AC0E963
:103230000031C0E9024206B0BDE8F09FCBF10000CA
:10324000DFE704460021404A491842EB0450CDE92B
:10325000001012E0E00707D032463B4640464946A0
:10326000FDF791F98046894632463B46104619469D
:10327000FDF789F906460F466410002CEAD1DDE916
:103280000401DDE90023BAF1000F06DAFDF77BF94E
:1032900042464B46FDF777F905E0FDF7E6F9424671
:1032A0004B46FDF7E2F904460E460022284BFDF797
:1032B00063FA03D84FF0FF30014607E00022254BA8
:1032C00020463146FDF7B8F8FDF73EFA102409E034
:1032D000002C0ADB0A220023FCF7D4FF039B3032C8
:1032E0001A55641E50EA0102F2D1641C039AC4F11B
:1032F00011031444119A012A03D0012208430DD16D
:103300000AE0084304D000204FF0110B119072E73F
:10331000A3EB0B056D1E0DE05B4504DD4FF00002D5
:1033200005F1010504E003DA4FF00002A5F1010503
:10333000002AECD002981199C0E90231C0E9004599
:1033400079E70000000014400000F03F300000006A
:103350000000F0430000E03F2DE9FF4F95B09A4692
:10336000884606460025EEE1252877D10024274629
:10337000F94A0121039400E0044316F8013F203B81
:1033800001FA03F01042F7D130782A2811D06FF0FB
:103390002F033078A0F13002092A16D8039A44F09E
:1033A000020402EB820203EB42021044761C0390FB
:1033B000EFE758F8042B0392002A03DA504244F452
:1033C0000054039044F00204761C30782E2816D165
:1033D00016F8010F44F004042A280DD06FF02F02D4
:1033E0003078A0F13003092B09D807EB870302EBF3
:1033F0004303C718761CF3E758F8047B761C307833
:103400006C280FD006DC4C2817D068280DD06A280D
:1034100014D104E0742810D07A280FD10DE044F4C0
:1034200000140AE044F4801401E044F4401472787B
:10343000824202D104F58014761C761C307866280E
:103440000BD013DC582877D009DC002875D045282C
:10345000F6D04628F4D047281AD193E118E0632823
:1034600035D0642879D0652812D18BE1702873D0CB
:1034700008DC6728F1D069286FD06E280DD06F283E
:1034800006D1ACE073282CD0752874D0782853D09E
:103490005246179990476D1C54E1C4F3025002281C
:1034A00009D003280DD0D8F8001004280DD00D60E5
:1034B00008F1040846E1D8F80010EA17C1E9005203
:1034C000F6E7D8F800100D80F2E70D70F0E718F875
:1034D000041B8DF8001000208DF80100EB46012040
:1034E00003E058F804BB4FF0FF3061074FF00001D4
:1034F00002D40DE009F101018946B9420FDA814594
:10350000F8DB1BF809100029F4D108E009F10101EA
:1035100089468142FADB1BF809100029F6D103988D
:103520005346A0EB090721463846179A00F080FA67
:10353000284400EB090507E044E008E10DE01BF832
:10354000010B524617999047B9F10109F7D253463A
:1035500021463846179AF2E039E00A21C4F30252B4
:103560004FF0000B0091022A06D058F8040BC11747
:10357000032A09D00AE023E008F1070020F007023F
:10358000F2E80201904605E000B2C117042A01D119
:1035900040B2C117002906DA0A460021404261EB19
:1035A00002012D2202E0220504D52B228DF80420F1
:1035B000012203E0E20701D02022F7E7914657E01D
:1035C0000A2100E010214FF0000B00910BE01021C8
:1035D0004FF0000B44F004040827009103E008209A
:1035E0004FF0000B0090C4F30252022A05D058F8A5
:1035F000040B0021032A08D008E008F1070020F09E
:103600000702F2E80201904603E080B2042A00D1EA
:10361000C0B24FF0000922072AD53278702A07D0AD
:10362000DDF800C08CF0100C5CEA0B0C05D00EE04D
:1036300040228DF80420012208E050EA010306D060
:1036400030238DF804308DF8052002229146009B2E
:1036500083F0080353EA0B030AD150EA010201D1B7
:10366000620705D530228DF804204FF001097F1E36
:103670003278582A04D039A20C920CAA02920BE09C
:103680003BA2F9E75B46009AFCF7FCFD0C9B9B5CB8
:10369000029A521E0292137050EA0102F2D102986D
:1036A00004A9081A00F1200B600702D524F4803425
:1036B00000E001275F4502DDA7EB0B0000E00020E2
:1036C00000EB0B01009003984944401A0390E0037B
:1036D00006D453462146179A039800F0A9F90544E9
:1036E000002706E001A85246C05D179990476D1C5F
:1036F0007F1C4F45F6DBE0030CD553462146179A55
:10370000039800F095F9054404E0302052461799DB
:1037100090476D1C0099481E00900029F5DC08E0D8
:103720000298029952460078491C029117999047D5
:103730006D1CBBF10001ABF1010BF1DC5BE100F0B2
:1037400065F90544761C307800287FF40DAE19B079
:103750002846BDE8F08F00000928010030313233DF
:1037600034353637383961626364656600000000BD
:1037700030313233343536373839414243444546A7
:1037800000000000600700D4062708F1070020F0C1
:103790000700F0E80223804603F0004C5FEA0C00CB
:1037A00001D097A009E0200501D596A005E0E0072B
:1037B00001D095A001E0AFF24C001390307823F0D7
:1037C000004365280CD006DC452809D046281DD0CA
:1037D00047287FD13BE0662818D067287AD136E0A9
:1037E0000021112F01DB112000E0781CCDE9000140
:1037F00004A90CA8FFF7EEFCDDE90D010C9A4FF0CF
:10380000000B07F10109109200914EE04FF00040CB
:103810000097CDE9011004A90CA8FFF7DBFCDDE956
:103820000D020C9B0F994FF0000B914610930092E4
:1038300011B9791C00EB0109B7EB090003D4C0F101
:10384000FF3B07F10109A9EB0700019042E0012FBE
:1038500000DA01270021112F01DD112000E0384698
:10386000CDE9000104A90CA8FFF7B4FCDDE90D01C6
:103870000C9A00914FF0000BB946109221070FD41B
:10388000009A4A4503DA914601E0A9F10109B9F12C
:10389000010F05DD109AA9F10101515C3029F4D026
:1038A000B84202DA10F1040F03DA0121CDE9011068
:1038B00010E0002803DC8344A9EB000102E0411C76
:1038C000494500DD8946A0EB0B00401C01904FF0FC
:1038D00000400290200705D40198484502DB4FF0D4
:1038E000FF30019000208DF84B0002980DF14B073E
:1038F000B0F1004F25D002200C902B200D900298A3
:1039000000280CDA404202902D200D9007E00A2199
:103910000298FCF76CFD3031029007F8011D0C99FC
:10392000481E0C900029F2DC02980028EFD1791E85
:103930000D980870307800F0200040F0450007F83E
:10394000020D11A8C01BC01D02901398007800B191
:10395000012000EB0901019801EBE071029801449C
:103960000398401A401E0390E00306D453462146B4
:10397000179A039800F05CF805441398007818B182
:103980005246179990476D1CE00323D553462146B4
:10399000179A039800F04CF805441BE0BBF1000FA8
:1039A00007DB0098584504DD1098179910F80B00B4
:1039B00001E0179930205246904701980BF1010B16
:1039C000401E05F10105019004D12E2052461799A1
:1039D00090476D1CB9F10001A9F10109DEDC05E099
:1039E00017F8010B5246179990476D1C0299481E13
:1039F00002900029F4DC53462146179A03989EE66C
:103A00002D0000002B000000200000002DE9F041F7
:103A1000044600251E461746880404D405E03946AE
:103A20002020B0476D1C641EF9D52846BDE8F08102
:103A30002DE9F041044600251E469046C80301D5F5
:103A4000302700E02027880404D505E041463846A9
:103A5000B0476D1C641EF9D52846BDE8F081A0F181
:103A60004101192901D808467047A0F13201052902
:103A700001D8183870474FF0FF307047F0B5054651
:103A80004FF6FF70002241F2210406460FE0AB5CC6
:103A900080EA03200023070403D584EA400080B2B3
:103AA00001E006EA40005B1C082BF4DB521C8A4252
:103AB000EDD3F0BD2DE9F041040006D0184E30687A
:103AC00084420AD10020BDE8F081502080F31188A3
:103AD000BFF34F8FBFF36F8FFEE700F041FF6569C3
:103AE000776BB66B00F05CFFBD4201D0B54201D1EF
:103AF0000220E8E70B48854208D1A06A0028F7D1E8
:103B000094F858000128F3D00320DCE70548143866
:103B1000854202D00DB10120D5E70420D3E7000093
:103B20001C000020D40600200348FDF71BFA642087
:103B300000F02AF9FBE700009D2C0108F0B58BB0DE
:103B4000FDF72EFC284D060046D10BB00020F0BD3D
:103B5000F26AE8686421904738E000BF00F046F858
:103B6000D0BB288BE98A884216D06968C0EBC000B8
:103B700001EB80011C2203A8FCF7D8FB288BA98A43
:103B8000401CB0FBF1F201FB1200288300F040F86A
:103B900000F02CF8002411E000F03AF81CE028684E
:103BA00050F824704FB107AB0DF10C0C93E80700EF
:103BB0008DE807009CE80F00B847641C688BA042A2
:103BC000EDDC00F025F803A800F05EF8E87F30B1E6
:103BD000FDF748F89028C1D0E87F0028B8D1716877
:103BE00000208847B1E70000400F012010B5FDF725
:103BF000D7FB30B1044942698968BDE810400846E6
:103C00001047024810BD0000400F012002000100D3
:103C100010B5FDF7C5FB30B1044982698968BDE87C
:103C2000104008461047024810BD0000400F012018
:103C3000020001000B4602460148024900F004B8A8
:103C400025232284E49CF2CBF0B500250CE0545DE2
:103C500040F2B3174440A4FB070C01FB07C14FF42B
:103C6000807604FB06116D1C9D42F0D3F0BD000070
:103C700013B54FF6FF73012269460248FEF79BFE1B
:103C800000981CBD0C01002010B50446C068002837
:103C90000CD0207EC00709D0FDF782FB002805D09C
:103CA000E168426CBDE810400846104710BD0000B6
:103CB000054D4FF4806421462846FDF7C9FF642076
:103CC00000F062F8F7E70000001402400B490A48D0
:103CD0000860FDF7D9FFFEF78FFFFEF7E1FEFEF764
:103CE0001FFFFEF739FFFEF753FF00F05BF8FEF70A
:103CF000B5FE00F069F8FEE70000010808ED00E0FD
:103D00002DE9F0470E460446FCF740FB0546082126
:103D10001C48FFF78FFF2B462246FFF795FF194AF5
:103D200008230832FFF790FF074616488846082107
:103D30001030FFF77FFF2B462246FFF785FF114A21
:103D400008231832FFF780FF002481468A46382571
:103D5000604205EBC00241463846FCF7C4FA3055D4
:103D6000641C082CF4DB0024604205EBC0024846CA
:103D70005146FCF7B8FA3119641C0872072CF3DBC2
:103D8000BDE8F087FC5F010810B5EFF3058111B1C4
:103D90006FF0050403E0002408B100F0E5FE2046C2
:103DA00010BD0000EFF3058010B16FF00500704703
:103DB0000448016811B14FF0FF30704701210160E4
:103DC000002070476C00002010B5EFF3058010B1A3
:103DD0006FF0050010BD08480168012902D04FF0BE
:103DE000FF3010BD054A002182F8141D0221016038
:103DF00000F0ECFF002010BD6C0000200BE000E0A4
:103E0000002000F0D7FEFEE72DE9FF414FEA010355
:103E10004FF00005EFF30581039549BB40B38027C0
:103E2000182100244AB3166806B1344696691EB1BB
:103E30003146761E382E02D21679F60703D00020BE
:103E400004B0BDE8F081566906B1B708D2F808C0E1
:103E5000BCF1000F0DD0D5685C2D18D312693AB1B2
:103E600036B18DE806103A46214601F058FC039021
:103E70000DE0D6685EB912694AB903AACDE900120D
:103E8000BAB2214601F01EFC012800D00395039828
:103E9000D6E700002DE9F041134C0F460546E668D1
:103EA0002068001D00F092FC681C07D137B1216822
:103EB000BDE8F0410D48091D00F046BD20683544BD
:103EC000B5424560216805D2A06BBDE8F041091DEF
:103ED00000F022BD606B091D00F01EFDA06A854246
:103EE00000D2A562BDE8F0811C000020D4060020AD
:103EF0002DE9F041054600F033FD2D4CA068401C33
:103F0000A06020682B4F10B1606930B32BE02560B2
:103F1000A068012827D1002606EB860007EB800069
:103F200000F0ECFC761C382EF6D3234800F0E6FCBB
:103F30002148143000F0E2FC1F48283000F0DEFC7D
:103F40001D483C3000F0DAFC1B48503000F0D6FC35
:103F5000194860631430A06305E02068E96AC06A0C
:103F6000884200D82560606A401C60626864E86A24
:103F70002169884200D9206100EB800007EB8000B6
:103F8000291D00F0E1FC00F00BFD606900280CD059
:103F90002068E96AC06A884207D208494FF0805019
:103FA0000860BFF34F8FBFF36F8FBDE8F081000053
:103FB0001C000020240200208406002004ED00E004
:103FC00038B500F0CDFC104C2068C8B90F4800F09F
:103FD00095FC0E48143000F091FC0C48E060143061
:103FE00020610A4B0020F03B009003F150021021A9
:103FF0000A2001F04EF8206010B105A100F052FD3A
:10400000BDE8384000F0CCBC58000020D8070020A4
:10401000546D72510000000030B4026C0B46002A4F
:104020000BD0C1681144C1608468A14201D301680A
:10403000C16030BC1846FCF779B930BC70472DE937
:10404000F041856B174604460026026C82B1C7B169
:10405000E068FCF76BF9E168206C091AE1602268FE
:10406000914202D2A168081AE060022F16D017E030
:104070002068A8B9A06801F0F5FB06460020A06002
:104080000EE06068FCF752F9216C606808446060DB
:10409000A168884204D32068606001E005B16D1E0C
:1040A0006D1CA5633046BDE8F08110B5044690F85C
:1040B000590058B101280CD002280FD0502080F3AD
:1040C0001188BFF34F8FBFF36F8FFEE7206B00F0B7
:1040D0007BFC2046BDE8104000F076BC10BD00001F
:1040E00010484FF48031420706D0C01D0D4920F022
:1040F0000700411AC1F580310B4A00230144C2E98F
:1041000000030839183A21F0070111604B600B6079
:104110000B1AC0E9001393604FF0004053605061E8
:1041200070470000B80E002088000020144E154C87
:10413000A6F29C474FF08058DFF84C9012E000BF89
:1041400000F00EFCF068C568281D00F03FFBA06879
:10415000401EA0606068401E606000F021FC2846A0
:10416000FFF7A3FF60680028EAD138680128F9D971
:10417000C9F80080BFF34F8FBFF36F8FF2E70000E5
:10418000C00600201C00002004ED00E0002807D03D
:104190000021816001600B460A46C16000F0F0BF5B
:1041A0007047000070B51D46049C51B1C4F8002052
:1041B000C4E90F010121204600F09EFF84F84C5015
:1041C00070BD2460F4E700002DE9F05F8846DDE96A
:1041D0000B941546834691009A460A9EA522206BB1
:1041E000FCF7B6F86FF00301206B01EB8501084482
:1041F00020F00707780707D0502080F31188BFF31D
:104200004F8FBFF36F8FFEE70025B8F1000F0FD07F
:104210005FF00000221818F8001082F8341018F827
:10422000001011B1401C1028F4D384F8435001E071
:1042300084F83450382E00D33726E662C4E913657B
:10424000201D00F066FB04F1180000F062FB246101
:10425000C6F138006462A061656584F85850524622
:104260005946384600F09CFA2060B9F1000F01D0A1
:10427000C9F80040BDE8F09F30B5114900E0114693
:104280000A688242FBD34B685C18844203D14068C1
:1042900018444860084643681C18944209D1084CE9
:1042A000183C2468A24209D052681A4442600A6845
:1042B00012680260814200D0086030BD0460F9E7F6
:1042C0008800002070B5002441600B4D00619142D0
:1042D00006D8D11A8269914206D2011D286907E0E9
:1042E0009A4203D2994201D3012403E0011DE868F8
:1042F00000F012FB204670BD5800002010B50446A7
:1043000000F02EFBA06B28B15FF0000400F048FB2A
:10431000204610BD0124F9E72DE9F04781460868E1
:1043200092460C46002600B3606804F10805406818
:104330006060A84201D1416861606068D0F80C807B
:10434000606840686060A84201D14168616060684F
:1043500006EBC60109EB8101C768534601223846C6
:1043600000F070FC761C4745EAD13046BDE8F08786
:1043700030B589B03C4D6EE00498002806DADDE9DE
:104380000601059A90470498002864DB069C606942
:1043900010B1201D00F01AFA03A800F0D7F8024669
:1043A00004980A2857D2DFE800F00505052D334AA6
:1043B00005052D3394F8280040F0010084F828000A
:1043C0000599A069059B01442046FFF77BFF68B370
:1043D000216A2046884794F8280040073BD50020F2
:1043E00000900598A169002342181946204601F063
:1043F0007FFBD8B9502080F31188BFF34F8FBFF3F4
:104400006F8FFEE714F8280F20F00100207022E0E3
:1044100094F8280040F0010084F828000598A06175
:1044200028B1811813462046FFF74CFF13E05020B7
:1044300080F31188BFF34F8FBFF36F8FFEE794F8BF
:104440002800810703D4204600F0BEFA03E020F0E4
:10445000010084F82800002204A9286800F0A0FFC9
:10446000002889D109B030BD580000202DE9FC4159
:104470000F46054600F0EEFC01A800F067F8044680
:10448000019818B101F0A2FABDE8FC81254EAFB148
:1044900030690068D0B30027291B3A46306800F025
:1044A00041FB01F093FA0028EED11F494FF08050F4
:1044B0000860BFF34F8FBFF36F8FE5E7A542EBD8DE
:1044C00001F084FAF0682746C068C468201D00F037
:1044D0007DF994F82800410719D5A0692B464119A8
:1044E0003A462046FFF7EEFEA8B1002003460146FB
:1044F00000902A46204601F0FBFA60B9502080F374
:104500001188BFF34F8FBFF36F8FFEE707E020F0F6
:10451000010084F82800216A20468847B4E7012773
:10452000BAE700005800002004ED00E00648416BA7
:10453000096829B1416BC968C968496881627047D7
:104540004FF0FF31FAE700001C00002070B505466F
:1045500001F01EF9064E0446B068844203D200F012
:1045600009F8012000E0002028602046B46070BDFA
:1045700058000020F8B5194D20E0C068C4680668EE
:10458000201D00F023F9216A2046884794F828006E
:10459000400713D5A0693044B04206D92461606059
:1045A000211DE86800F0B8F908E000200346014644
:1045B00000903246204601F09BFA38B1E868016865
:1045C0000029DAD12969C5E90310F8BD502080F32C
:1045D0001188BFF34F8FBFF36F8FFEE758000020A5
:1045E000002101E0401C491C0278A52AFAD0C1F341
:1045F0008F00704708484068401C4FF0500080F31F
:10460000118804D0BFF34F8FBFF36F8FFEE7BFF366
:104610004F8FBFF36F8FFEE790000020074CE068DC
:10462000016841B1C0680021D0F80000FFF71EFF0B
:10463000FFF79EFEF3E701210020F7E75800002076
:104640002DE9F041044600F08BF994F9455004F14E
:10465000240609E0606A48B1304601F07FF908B1EC
:1046600000F032FB6D1E6DB2002DF3DC4FF0FF3613
:1046700084F8456000F094F900F072F994F9445020
:1046800004F1100709E0206948B1384601F066F9E5
:1046900008B100F019FB6D1E6DB2002DF3DC84F83B
:1046A0004460BDE8F04100F07BB900002DE9F04125
:1046B0000546002700F0CEFB324E306808B9FFF700
:1046C0000FFD706905424ED1C5B3083568070ED09D
:1046D00005F00700C0F108000544680707D0502026
:1046E00080F31188BFF34F8FBFF36F8FFEE72DB3B9
:1046F0007068854237D82348183001460C6801E0BD
:1047000020460C466168A94202D221680029F7D1EF
:1047100031688C4227D007682168016060680837DB
:10472000411B10290FD96019420708D0502080F38F
:104730001188BFF34F8FBFF36F8FFEE713E0416027
:104740006560FFF799FD61687068401A7060B26833
:10475000904200D2B060706901430020C4E90001BA
:10476000F068401CF06001F031F9780707D0502064
:1047700080F31188BFF34F8FBFF36F8FFEE738468A
:10478000BDE8F081700000200449086818B108688D
:10479000026D521C02650868704700001C00002072
:1047A00010B5031F4FF080741C601B1F21F0010126
:1047B0001960191F044B0B6014390A60091F6FF050
:1047C000020244380A6010BDF5450108D0E9013203
:1047D00001699A60D0E901235A604A68824201D196
:1047E00082684A60002202610868401E086008680A
:1047F000704710B5040006D000F0B2F8A46B00F0CA
:10480000CFF8204610BD502080F31188BFF34F8FA2
:10481000BFF36F8FFEE7000001488068704700001B
:104820001C0000202DE9F04717460A4605460024E3
:10483000382600F00FFBDFF88C80D8F808008242A1
:104840003AD3DFF88490761E06EB860104EBC400B1
:1048500009EB810105EB80000122FFF75DFD0444B7
:10486000002EF0D104EBC40005EB80000222464686
:10487000D8F83410FFF750FD044404EBC40005EBF6
:1048800080000222B16BFFF747FD044404EBC40033
:1048900005EB800004220D49FFF73EFD04440B495F
:1048A00004EBC40005EB800003221431FFF734FD54
:1048B00004440FB10020386001F088F82046BDE8BC
:1048C000F08700001C00002024020020C006002009
:1048D000034B036003F15C000860802010607047A8
:1048E00000080020044B036003F15C0008604FF4F3
:1048F00080701060704700005C0A002000F1080121
:104900004FF0FF32C0E90112C16001610021016076
:10491000704700210161704730B50B685A1C02D006
:1049200000F1080202E0026904E0224654682568AA
:104930009D42FAD953684B6099608A605160086162
:104940000168491C016030BD42684A6093688B6011
:1049500093685960916008610168491C0160704763
:10496000502080F31188BFF34F8FBFF36F8F0A4938
:104970004868401C486001280CD10848006810F0C5
:10498000FF0F07D0502080F31188BFF34F8FBFF384
:104990006F8FFEE7704700009000002004ED00E0FC
:1049A0000849486828B1401E486001D180F3118849
:1049B0007047502080F31188BFF34F8FBFF36F8F84
:1049C000FEE700009000002070B500282AD0164DA8
:1049D000A0F1080460686969084207D1502080F39B
:1049E0001188BFF34F8FBFF36F8FFEE722683AB194
:1049F000502080F31188BFF34F8FBFF36F8FFEE716
:104A00008843606000F026FA60686968084468605E
:104A10002046FFF731FC2869401C2861BDE8704042
:104A200000F0D4BF70BD0000700000204FF0E02007
:104A300000210161816105494FF47A720968B1FB77
:104A4000F2F1491E41610721016170471800002001
:104A500010B5FBF701FC114910280ED300F1E0203E
:104A600090F8F0030A78904207D2502080F3118822
:104A7000BFF34F8FBFF36F8FFEE709480068896867
:104A800000F4E060884207D9502080F31188BFF31A
:104A90004F8FBFF36F8FFEE710BD00009000002026
:104AA0000CED00E010B5084B002200BF53F8324077
:104AB0001CB1521C082AF9D310BD43F8321003EB85
:104AC000C201486010BD0000E401002010B50400E0
:104AD0000AD000F013F894F8460000280CD12046C4
:104AE000BDE81040FFF770BF502080F31188BFF37E
:104AF0004F8FBFF36F8FFEE710BD0000084A002103
:104B000002EBC1035B68834206D1002042F831000A
:104B100002EBC10148607047491C0829F0D3704777
:104B2000E401002070B515460E460446FFF718FF55
:104B300094F944100020491C01D184F8440094F9F0
:104B40004510491C01D184F84500FFF729FFA06BEF
:104B500028B92A46314604F1240000F0D3F8204653
:104B6000BDE87040FFF76CBD10B5020014D00F48CF
:104B7000006B38B1502080F31188BFF34F8FBFF323
:104B80006F8FFEE700F066F900211046FFF782F90B
:104B900000F01CFF002807D105494FF08050086045
:104BA000BFF34F8FBFF36F8F10BD00001C000020BC
:104BB00004ED00E070B50546FFF7D2FE1E4C05B9C6
:104BC0002568281DFFF702FEA86A18B105F1180034
:104BD000FFF7FCFD606A401C60622068854207D1D7
:104BE000291D1648FFF7B0FE6068401C606007E0B2
:104BF000A068401EA0602846FFF757FAFFF796FC12
:104C0000FFF7CEFE6069002814D02068854211D1DC
:104C1000206B38B1502080F31188BFF34F8FBFF362
:104C20006F8FFEE706494FF080500860BFF34F8F4B
:104C3000BFF36F8F70BD00001C000020C006002075
:104C400004ED00E02DE9F0410C461A491646B0B1DA
:104C50004FEA000505F13400C4E90050E86A20611C
:104C6000286BE061686CA0600027E86CC4E9050768
:104C7000052B12D00868854203D1277311E00D6817
:104C8000E8E72373032B0CD100F0E4F8A86A08B11D
:104C90000220207300F09AFE03E02846FEF70AFF88
:104CA00020732EB1286BFFF79BFC2084BDE8F081B8
:104CB0002784FBE71C00002002490A6A0260C968D9
:104CC000416070471C00002001490120C861704705
:104CD0001C00002010B50C4650B109490968183174
:104CE000FFF71AFE2046BDE810400121FFF7D2B8B9
:104CF000502080F31188BFF34F8FBFF36F8FFEE713
:104D00001C00002070B514460D4668B10A490968B8
:104D10001831FFF719FE0CB14FF0FF352146284638
:104D2000BDE87040FFF7B6B8502080F31188BFF39C
:104D30004F8FBFF36F8FFEE71C00002070B504009B
:104D40003ED0226DA2B1E06C884200D30146E06AF9
:104D5000884235D0012A33D11A4D2A6894420FD1A6
:104D6000502080F31188BFF34F8FBFF36F8FFEE7A2
:104D7000502080F31188BFF34F8FBFF36F8FFEE792
:104D8000E162A269002A02DBC1F13801A1610E4E85
:104D900000EB8000616906EB8000814210D1201D8C
:104DA000FFF714FDE06A2969884200D9286100EB09
:104DB000800006EB8000211DBDE87040FFF7C4BDF8
:104DC00070BD00001C0000202402002030B587B018
:104DD0000024039405AA04A903A80494FFF778FD0E
:104DE000DDE903010094CDE90110002315A1174866
:104DF000059A00F094FC164D0028E8621FD000F0E0
:104E000047FE012809D0401C19D1502080F3118899
:104E1000BFF34F8FBFF36F8FFEE7502080F31188F1
:104E2000BFF34F8FBFF36F8F4FF0FF30A8620120A9
:104E30006861EC6007B0BDE8304000F051B807B0E1
:104E400030BD000049444C45000000002D410108E0
:104E50001C0000200248016B491C016370470000E0
:104E60001C000020164810B5016B11B10121C16171
:104E700010BD0021C1610169124A01E0B9B1491EAA
:104E800001EB810352F82330002BF7D001EB8103B3
:104E900002EB830202F1080453685B685360A3428B
:104EA00001D15B685360DA680260016110BD502077
:104EB00080F31188BFF34F8FBFF36F8FFEE70000C1
:104EC0001C000020240200200148406870470000B8
:104ED00070000020014880687047000070000020CA
:104EE0001CB537480168374A914207D1502080F3FA
:104EF0001188BFF34F8FBFF36F8FFEE70068314912
:104F0000491E884207D1502080F31188BFF34F8F8C
:104F1000BFF36F8FFEE72C4908780190FF200870DF
:104F200008788DF800009DF800009DF8002000F042
:104F3000F000904207D0502080F31188BFF34F8FCC
:104F4000BFF36F8FFEE79DF80000204C00F050008B
:104F500020700720A06005E09DF8002052008DF829
:104F60000020401E9DF800201206F5D4A060032802
:104F700007D0502080F31188BFF34F8FBFF36F8F9E
:104F8000FEE74FF44070A060019808700C48203094
:104F9000016841F470010160016841F070410160F5
:104FA000FFF744FD00206060FBF71EF90848016828
:104FB00041F040410160FBF703F900201CBD0000F7
:104FC00000ED00E071C20F4100E400E0900000201D
:104FD00034EF00E010B5502080F31188BFF34F8FFD
:104FE000BFF36F8F00F0DAFB18B104494FF0805027
:104FF0000860002080F3118810BD000004ED00E07F
:1050000010B50C4648B184420FD9502080F3118866
:10501000BFF34F8FBFF36F8FFEE7502080F31188EF
:10502000BFF34F8FBFF36F8FFEE70222002100F026
:105030000FF8002800D0846310BD10B5024600218F
:10504000012000F005F80446FFF7A0F8204610BD47
:10505000F8B517460E46050013D005FB06F0503094
:10506000FFF724FB04000AD0002084F8460004F176
:1050700050023B46314628460094FFF793F82046FD
:10508000F8BD502080F31188BFF34F8FBFF36F8FAF
:10509000FEE738B5049D18B153B1CAB181B120E023
:1050A000502080F31188BFF34F8FBFF36F8FFEE75F
:1050B000502080F31188BFF34F8FBFF36F8FFEE74F
:1050C000502080F31188BFF34F8FBFF36F8FFEE73F
:1050D00039B1502080F31188BFF34F8FBFF36F8F2A
:1050E000FEE750241C46012384F846302B460094EA
:1050F000FFF758F8204638BD70B50D46040025D09E
:10510000FFF72EFCD4E90F20216802FB0011A160FB
:105110000021A163216861600A46D4E90F01401EA5
:1051200000FB0121E16021464FF0FF3001F8440F00
:10513000487004F110008DB1FFF7E0FB04F124008A
:10514000FFF7DCFBFFF72CFC012070BD502080F343
:105150001188BFF34F8FBFF36F8FFEE721690029DE
:10516000F0D000F0FBFB0028ECD004494FF0805059
:105170000860BFF34F8FBFF36F8FE3E704ED00E0EC
:105180002DE9FF4782B01D468A464FF00008040013
:1051900003D0BAF1000F08D011E0502080F311883D
:1051A000BFF34F8FBFF36F8FFEE7206C38B15020F5
:1051B00080F31188BFF34F8FBFF36F8FFEE7022D8F
:1051C0000AD1E06B012807D0502080F31188BFF38B
:1051D0004F8FBFF36F8FFEE700F0CCFA3F4F4FF0D9
:1051E00000094FF0805648B9049838B1502080F338
:1051F0001188BFF34F8FBFF36F8FFEE7FFF7B0FB50
:10520000A06BE16B884207D3022D05D00498D0B182
:10521000B8F1000F1AD01EE02A4651462046FEF78C
:105220000EFF616A19B104F1240000F097FB20B170
:105230003E60BFF34F8FBFF36F8FFFF7B1FB0120CD
:1052400006B0BDE8F087FFF7ABFB22E06846FFF74A
:1052500033FD4FF00108FFF7A3FBFFF7FBFDFFF75E
:105260007FFB94F94400401C01D184F8449094F9E8
:105270004500401C01D184F84590FFF791FB04A93B
:10528000684600F0E5F930B12046FFF7D9F900F0A3
:105290009DFB0020D4E7FFF763FBA06BE16B884226
:1052A00013D1FFF77DFB04F110000499FFF712FD05
:1052B0002046FFF7C5F900F089FB00289ED13E602B
:1052C000BFF34F8FBFF36F8F98E7FFF769FB20465F
:1052D000FFF7B6F900F07AFB90E7000004ED00E07C
:1052E0002DE9F0471F4690468946040003D0B9F1E6
:1052F000000F08D011E0502080F31188BFF34F8FCA
:10530000BFF36F8FFEE7206C38B1502080F3118817
:10531000BFF34F8FBFF36F8FFEE7022F0AD1E06B11
:10532000012807D0502080F31188BFF34F8FBFF3BF
:105330006F8FFEE7FFF78CFB5020EFF3118680F3B1
:105340001188BFF34F8FBFF36F8FA06BE16B884263
:1053500006D3022F04D0002086F31188BDE8F08721
:1053600094F94550A06B3A4649462046FEF767FE41
:10537000681C04D06D1C84F845500120ECE7606A7D
:105380000028FAD004F1240000F0E8FA0028F4D054
:10539000B8F1000FF1D00121C8F80010EDE70000CE
:1053A0002DE9F747002683B08A46040003D0BAF1FE
:1053B000000F08D011E0502080F31188BFF34F8F09
:1053C000BFF36F8FFEE7206C38B1502080F3118857
:1053D000BFF34F8FBFF36F8FFEE700F0CBF9DFF81D
:1053E000F4804FF000094FF0805748B9059838B164
:1053F000502080F31188BFF34F8FBFF36F8FFEE70C
:10540000FFF7AEFAA56BC5B151462046FEF704FE84
:105410006D1EA563206950B104F1100000F09EFAE2
:1054200028B1C8F80070BFF34F8FBFF36F8FFFF73D
:10543000B7FA012006B0BDE8F087059808B11EB1A3
:1054400006E0FFF7ADFA27E06846FFF735FC0126D6
:10545000FFF7A6FAFFF7FEFCFFF782FA94F9440083
:10546000401C01D184F8449094F94500401C01D1BE
:1054700084F84590FFF794FA05A9684600F0E8F82B
:10548000002820460AD0FFF7DBF800F09FFA2046FC
:10549000FEF734FF0028B3D00020CBE7FEF72EFF45
:1054A00090B104F124000599FFF714FC2046FFF7A2
:1054B000C7F800F08BFA0028A2D1C8F80070BFF33B
:1054C0004F8FBFF36F8F9BE72046FFF7B9F800F0CF
:1054D0007DFA95E704ED00E02DE9F343002683B063
:1054E0000400354609D0206C78B1502080F3118833
:1054F000BFF34F8FBFF36F8FFEE7502080F311880B
:10550000BFF34F8FBFF36F8FFEE700F033F9DFF883
:105510003C814FF000094FF0805748B9049838B1EA
:10552000502080F31188BFF34F8FBFF36F8FFEE7DA
:10553000FFF716FAA06BC8B1401EA063206810B92F
:10554000FFF722F9A060206950B104F1100000F0CB
:1055500005FA28B1C8F80070BFF34F8FBFF36F8F03
:10556000FFF71EFA012005B0BDE8F083049808B1EA
:1055700066B10FE03DB1502080F31188BFF34F8F2B
:10558000BFF36F8FFEE7FFF70BFA5DE06846FFF7AA
:1055900093FB0126FFF704FAFFF75CFCFFF7E0F945
:1055A00094F94400401C01D184F8449094F94500DA
:1055B000401C01D184F84590FFF7F2F904A9684630
:1055C00000F046F80028204612D0FFF739F800F026
:1055D000FDF92046FEF792FE0028A9D09DB3FFF703
:1055E000BFF9606A50B3206B0068C0F1380126E053
:1055F000FEF784FEE0B1206838B9FFF7B1F9A06882
:1056000000F070F90546FFF7CBF904F12400049986
:10561000FFF760FB2046FFF713F800F0D7F90028EA
:1056200086D1C8F80070BFF34F8FBFF36F8F7FE74D
:105630002046FFF705F800F0C9F979E70021A068D6
:10564000FFF77CFB9FE7FFE700208CE704ED00E01D
:105650002DE9F0410C46050011D0C4B1FFF780F9E7
:10566000174BDA686E682068911B471C17D02F68AB
:105670001B6A9F4219D0964217D8012410E050208F
:1056800080F31188BFF34F8FBFF36F8FFEE7502079
:1056900080F31188BFF34F8FBFF36F8FFEE70024B5
:1056A000FFF77EF92046BDE8F081884205D9401A0F
:1056B00020602846FFF700FBF1E700202060DCE7D0
:1056C0001C0000202DE9FF5F8346DDE90E87994627
:1056D00016468A469000FEF7E9FF05001CD05C20C4
:1056E000FEF7E4FF040014D00020256384F859007D
:1056F000CDE90240CDE900874B4632465146584637
:10570000FEF762FD2046FEF7F3FB012004B0BDE882
:10571000F09F2846FFF758F94FF0FF30F6E7F0B555
:1057200085B0DDE90B640A9DA6B1DCB15C2700976A
:105730002663022684F85960002604AFCDE90246AC
:10574000CDE90057FEF740FD2046FEF7D1FB049857
:1057500005B0F0BD502080F31188BFF34F8FBFF329
:105760006F8FFEE7502080F31188BFF34F8FBFF398
:105770006F8FFEE70548416919B1006B18B1002031
:105780007047012070470220704700001C00002075
:105790000148C068704700001C0000202DE9F0415E
:1057A0002E4C0027206B28B1A069401CA061384610
:1057B000BDE8F081E668761CE66013D1606B006896
:1057C00038B1502080F31188BFF34F8FBFF36F8F34
:1057D000FEE7606BA16B6163A063206A401C2062DE
:1057E000FEF7A4FEA06ADFF87880864209D3606BDA
:1057F0000068A0B1606BC068C5686868864211D255
:10580000A0622068C06A00EB800158F821000128DE
:1058100000D90127E0690028C9D00127C7E74FF068
:10582000FF30EDE7281DFEF7D1FFA86A18B105F19A
:105830001800FEF7CBFFE86A2169884200D9206191
:1058400000EB800108EB8100291DFFF77DF8E86A75
:105850002168C96A8842CAD30127C8E71C00002012
:105860002402002070B504004FF0000133D01B4D1E
:105870002868844207D0502080F31188BFF34F8FEF
:10588000BFF36F8FFEE7206D38B1401E2065E36CDB
:10589000E26A9A421FD040B11DE0502080F3118887
:1058A000BFF34F8FBFF36F8FFEE7201DFEF78EFF14
:1058B000E06CE062C0F13800A061E06A29698842CA
:1058C00000D92861064900EB800001EB8000211D12
:1058D000FFF73AF80121084670BD00001C000020C7
:1058E0002402002070B504004FF000002BD0194DA9
:1058F000E16A2A68D26A914226D2A069002804DBB4
:105900002868C06AC0F13800A061134E01EB810124
:10591000606906EB8101884211D1201DFEF756FF18
:105920002868C06AE0622969884200D9286100EBD2
:10593000800006EB8000211DFFF706F802E02868D2
:10594000C06AE062012070BDE16C2A68D26A9142AF
:10595000F8D370BD1C0000202402002070B5C06880
:10596000C46854B104F118000646FEF72FFF144D29
:10597000286B50B13146134815E0502080F3118850
:10598000BFF34F8FBFF36F8FFEE7201DFEF71EFFA3
:10599000E06A2969884200D928610B4900EB800040
:1059A00001EB8000211DFEF7CFFFE06A2968C96A7C
:1059B000884202D90120E86170BD002070BD00005E
:1059C0001C000020AC060020240200202DE9F04736
:1059D0002C4D00242746286B38B1FEF7C1FF286BF9
:1059E000401E2863286B40B146E0502080F31188A8
:1059F000BFF34F8FBFF36F8FFEE7A968224E0120E0
:105A0000D1B3A6F5916980463068E0B1F068C4680A
:105A100004F11800FEF7DAFE201DFEF7D7FEE06A5B
:105A20002969884200D9286100EB800109EB8100D7
:105A3000211DFEF789FFE06A2968C96A8842E3D31D
:105A4000C5F81C80E0E70CB1FEF770FDAC694CB105
:105A50004FEA0806FFF7A2FE00B1EE61641EF9D11D
:105A60000020A861E86938B10849012738070860B3
:105A7000BFF34F8FBFF36F8FFEF792FF3846BDE83D
:105A8000F08700001C000020AC06002004ED00E0C0
:105A900010B586B0FEF794FA114C2068B8B100201A
:105AA0000390049005AA04A903A8FEF71BFFDDE9F3
:105AB000032102208DE8070000230AA10B48059A64
:105AC000FFF72DFE606010B106B0012010BD502020
:105AD00080F31188BFF34F8FBFF36F8FFEE7000095
