:020000040800F2
:10000000C89800206102000891190008B71700087D
:100010008D19000833050008952E00080000000027
:10002000000000000000000000000000A101000826
:10003000A505000800000000FD010008432200089B
:100040007B0200087B0200087B0200087B0200089C
:100050007B0200087B0200087B0200087B0200088C
:100060007B0200087B0200087B0200087B0200087C
:100070007B0200087B0200087B0200087B0200086C
:100080007B0200087B0200087B0200087B0200085C
:100090007B0200087B0200087B0200087B0200084C
:1000A0007B0200086D2200087B0200087B0200082A
:1000B0007B0200087B0200087B0200087B0200082C
:1000C0007B0200087B0200087B0200087B0200081C
:1000D0007B020008B12B0008652C0008452D0008A4
:1000E0007B0200087B0200087B0200087B020008FC
:1000F0007B0200087B0200087B0200087B020008EC
:100100007B0200087B0200087B0200087B020008DB
:100110005D2300087B0200087B0200087B020008C8
:100120007B0200087B0200087B0200087B020008BB
:100130007B0200087B0200087B0200087B020008AB
:100140007B0200087B0200087B0200087B0200089B
:100150007B0200087B0200087B0200087B0200088B
:100160007B0200087B0200087B0200087B0200087B
:100170007B0200087B0200087B02000800000000F0
:100180007B0200087B020008DFF810D000F0FAF8CC
:1001900000480047B1370008AFF30080C89800203E
:1001A0002C4B19680868B0E8F04F80F30988BFF35A
:1001B0006F8F4FF0000080F311887047000000003F
:1001C00008480068006880F308884FF0000080F35A
:1001D000148862B661B6BFF34F8FBFF36F8F00DF35
:1001E00000BF00BF08ED00E0DFF80C00016841F43B
:1001F00070010160704700BF88ED00E0EFF30980F7
:10020000BFF36F8F134B1A681EF0100F08BF20ED5D
:10021000108A20E9F04F106009B44FF0500080F3CD
:100220001188BFF34F8FBFF36F8F04F0F3FC4FF0D3
:10023000000080F3118809BC19680868B0E8F04F25
:100240001EF0100F08BFB0EC108A80F30988BFF3CE
:100250006F8F7047F8400020EFF305807047000073
:100260000648804706480047FEE7FEE7FEE7FEE750
:10027000FEE7FEE7FEE7FEE7FEE7FEE7592200089D
:10028000890100082DE9F05F0546002092469B4653
:1002900088460646814640241BE02846414647469C
:1002A000224600F05FF853465A46C01A914110D3D7
:1002B00011461846224600F046F82D1A67EB010851
:1002C0004F4622460120002100F03DF817EB0009BF
:1002D0004E41201EA4F10104DFDC484631462A4687
:1002E0004346BDE8F09F40EA01039B0703D009E0C5
:1002F00008C9121F08C0042AFAD203E011F8013B12
:1003000000F8013B521EF9D27047D2B201E000F86A
:10031000012B491EFBD270470022F6E710B51346A9
:100320000A4604461946FFF7F0FF204610BD10B5F7
:10033000044604E00B7800F8013B03B1491C521E4F
:10034000F8D2204610BD202A04DB203A00FA02F140
:10035000002070479140C2F1200320FA03F31943B3
:1003600090407047202A04DB203A21FA02F0002155
:10037000704721FA02F3D040C2F1200291400843B5
:1003800019467047064C074D06E0E06840F001034F
:1003900094E8070098471034AC42F6D3FFF7F8FE14
:1003A000086100082861000870B58C1810F8015B1E
:1003B00015F0070301D110F8013B2A1106D110F8FE
:1003C000012B03E010F8016B01F8016B5B1EF9D102
:1003D0002B0705D40023521E0DD401F8013BFAE788
:1003E00010F8013BCB1A921C03E013F8015B01F8F3
:1003F000015B521EF9D5A142D8D3002070BD10B5C3
:1004000004460CB9042010BD012004F019FD206041
:10041000206808B90920F6E70020F4E770B5044623
:100420000CB9042070BD4FF0FF352946204605F079
:1004300007F8012801D00920F4E70020F2E710B501
:1004400004460CB9042010BD00231A461946204664
:1004500004F0F0FD012801D00920F4E70020F2E7C4
:100460002DE9F04387B005460F4614469946DDF85E
:1004700038800020039004900590069004F003005B
:1004800008B9A60802E0012000EB940625B10F226E
:10049000294603A8FFF74BFF0020B2B24B4603A941
:1004A000CDE90008384605F0EDF8012802D000201B
:1004B000C8F80000002007B0BDE8F08370B504461E
:1004C00025460DB1294600E00121084604F05AFAFC
:1004D000002070BD08B54FF4E131022001F0DEFFCD
:1004E000054800234FF400720449009004A0FFF770
:1004F000B7FF002008BD0000804100201105000862
:10050000426F6F74536572766963655461736B00F3
:100510004FF4FA70FFF7D2FF01F0F8FC00F025F875
:10052000012801D101F0F2FC00BF6420FFF7C6FFF3
:10053000FBE700BFFEE7F0B505460E460024AF1905
:1005400005E015F8011BA0B202F08BFC0446BD4289
:10055000F7D3A0B2002102F084FC0446204600211B
:1005600002F07FFC04462046F0BD10B5002400BF19
:1005700008E000F00BF8012800D110BD6420FFF75F
:100580009DFF641C0A2CF4DB0020F6E710B5012166
:10059000034800F069FD08B9012010BD0020FCE708
:1005A00000000240704772B600BFFEE710B500229F
:1005B00001B909E0012901D10A0205E0022901D1AE
:1005C0000A0201E04FF440720E4B1B6823F44073A3
:1005D0000C4C236023461B681343236023461B688F
:1005E00023F07803236023461B68022444EAC004F6
:1005F0002343044C236023461B6843F48033236069
:1006000010BD0000103C02401C48006800F400705F
:10061000B0B11A48006820F400701849086000BFA3
:100620000846006840F4006008600846006820F44E
:100630000060086000BF0846006840F40070086071
:100640000E48006800F48060B0B10C48006820F4E7
:1006500080600A49086000BF0846006840F4805086
:1006600008600846006820F48050086000BF084613
:10067000006840F48060086070470000003C024061
:100680002DE9F04387B007460D4600F0D9FBF32073
:1006900012490860384600F025FA0646284600F060
:1006A00021FA8046A8EB0600401C00F0FF0900205C
:1006B00001900396CDF810900220059006A901A89C
:1006C00000F096FA08B1012401E0002400BF00F018
:1006D00041FB204607B0BDE8F08300000C3C02401F
:1006E00010B588B040F6FF7400F0AAFB01A800F036
:1006F000D5FA00F02FFB2046039920EA010414B13B
:10070000022008B010BD0020FBE700002DE9F047F3
:1007100080460F46914600254FEA990A444600F06C
:100720008FFBF3202249086000BF14E057F825C072
:10073000624600232146022000F03AFB40B957F8F8
:1007400025102068884201D002262BE0241D01E0FC
:10075000032627E06D1C554502D216488442E5D990
:10076000002519E03819A0EB080090F800C0624697
:1007700000232146184600F01BFB50B92078391998
:10078000A1EB08010978884201D002260AE0641C26
:1007900001E0032606E06D1C09F00300A842E1D841
:1007A000002600BF00F0D6FA3046BDE8F087000012
:1007B0000C3C0240FBFF0F0870B58EB0044640F6BB
:1007C000FF750026684600F069FA0894012007903A
:1007D000AA200B909DF818008DF834002946029845
:1007E00040EA010500F02CFB00F0CCFA099507A8BF
:1007F00000F066FA064630460EB070BD0A4A12682E
:1008000022F44072084B1A601A46126842F0040241
:100810001A601A4612684FF4803343EA00231A43E1
:10082000014B1A6070470000103C02400146064828
:10083000007820F00C00044A10701046007808433D
:100840001070002070470000143C024070B5044650
:100850000E4600254CF2503000F012F905462DB935
:1008600003480088A1B2084301490880284670BDAA
:10087000163C024070B504460E4600254CF250303E
:1008800000F0FEF8054625B903480088A043024958
:100890000880284670BD0000163C024002480078DF
:1008A00000F00C0070470000143C0240AA200749E9
:1008B0000978CC2901D1CC2006E004490978AA297D
:1008C00001D1AA2000E0552070470000153C0240ED
:1008D0000248006800F0E00070470000143C02404D
:1008E0000148008870470000163C024070B504467D
:1008F00000254CF2503000F0C3F805460DB902480F
:100900000470284670BD0000153C02402DE9F041FE
:1009100004468846154600274CF2503000F0B0F8E7
:1009200007464FB90648007800F01F0648EA06005F
:1009300028432043024908703846BDE8F081000092
:10094000143C0240074A126822F44072054B1A60B8
:100950001A4612681A601A46126842F001021A60BA
:1009600001707047103C024010B50A49096821F433
:100970004071084C21602146096841F440712160B2
:100980002146096841F0010121600260BFF36F8FC9
:10099000436010BD103C0240084A126822F44072C5
:1009A000064B1A601A46126842F480721A601A46A0
:1009B000126842F001021A6001807047103C024048
:1009C000084A126822F44072064B1A601A461268EE
:1009D00042F400721A601A46126842F001021A606C
:1009E00001607047103C02402348006800F010008E
:1009F00040B12248C06940F010002049C861102071
:100A00001D4908601C48006800F0200040B11B48E8
:100A1000C06940F008001949C861202016490860E3
:100A20001548006800F0400040B11448C06940F02B
:100A300004001249C86140200F4908600E48006850
:100A400000F0800040B10D48C06940F002000B4941
:100A5000C8618020084908600748006800F002006B
:100A600040B10648C06940F020000449C861022036
:100A700001490860704700000C3C0240C84000205B
:100A800070B50446002500201449C86100F004FB3D
:100A9000054609E0601C38B124B100F0FDFA401BA6
:100AA000A04201D9032070BD0D48006800F48030D9
:100AB0000028EFD10A48006800F0010010B10120C1
:100AC000074908600648006800F0F20018B1FFF717
:100AD0008BFF0120E7E70020E5E70000C840002089
:100AE0000C3C0240014600202C4A914203D2B1F155
:100AF000006F00D350E02A4A914204D2274A914223
:100B000001D3012048E0274A914204D2244A91426D
:100B100001D3022040E0244A914204D2214A91426A
:100B200001D3032038E0214A914204D21E4A914267
:100B300001D3042030E01E4A914204D21B4A914264
:100B400001D3052028E01B4A914204D2184A914261
:100B500001D3062020E0184A914204D2154A91425E
:100B600001D3072018E0154A914204D2124A91425B
:100B700001D3082010E0124A914204D20F4A914258
:100B800001D3092008E00F4A914204D20C4A914255
:100B900001D30A2000E00B2070470000004000084D
:100BA0000080000800C000080000010800000208E2
:100BB00000000408000006080000080800000A08F9
:100BC00000000C0800000E0870B5044600F064FA3E
:100BD00006462546681C10B104480078054400BF4D
:100BE00000F05AFA801BA842FAD370BDF0400020F2
:100BF0002DE9F04104460F46002600BF2548007E3F
:100C0000012802D10220BDE8F081012021490876A7
:100C100000BF4CF25030FFF733FF0546002D31D1B5
:100C2000401E3860206801280FD1207C6168FFF7E2
:100C3000E5FD4CF25030FFF723FF054616480068EB
:100C400020F00400144908601AE0A66812E0217C34
:100C50003046FFF7ABFC4CF25030FFF711FF054672
:100C60000D48006820F07A000B4908600DB13E6025
:100C700005E0761CD4E902100844B042E7D800BF72
:100C8000FFF7C2FC00BF00200249087600BF2846DB
:100C9000B9E70000C8400020103C024010B50446EF
:100CA0000F202060FFF71CFEA060FFF7FFFD206112
:100CB000FFF70EFE2076FFF7F1FD606110BD00002A
:100CC00070B50446012500BF2148007E012801D1EE
:100CD000022070BD01201E49087600BF207800F078
:100CE000010068B16068012805D1D4E90201FFF76D
:100CF000C1FD054604E0D4E90201FFF7A7FD054662
:100D0000207800F00200022803D1207CFFF7EEFDDE
:100D10000546207800F00400042809D1237E03F062
:100D2000800203F0400103F02000FFF7EFFD0546CD
:100D3000207800F00800082803D1207DFFF776FD19
:100D4000054600BF00200249087600BF2846C0E7DC
:100D5000C84000200348006840F000400149086096
:100D600000207047103C024010B50548007840F064
:100D70000200034908704CF25030FFF781FE10BDAD
:100D8000143C02400748006800F0010030B10648FA
:100D900004490C3908600548086001E001207047EB
:100DA0000020FCE7143C02403B2A19087F6E5D4C92
:100DB0002DE9F0410646884614461D4600BF1E48F0
:100DC000007E012802D10220BDE8F08101201A49ED
:100DD000087600BF4CF25030FFF752FE07461FBBAB
:100DE00026B9E1B24046FFF7ADFD12E0012E04D175
:100DF000A1B24046FFF7D0FD0BE0022E04D1214600
:100E00004046FFF7DDFD04E022462B464046FFF753
:100E1000ABFD4CF25030FFF733FE07460748006841
:100E200020F001000549086000BF00200249087653
:100E300000BF3846C8E70000C8400020103C024010
:100E400000200949096801F0004159B10749064AE3
:100E50000C3A1160064911600349096801F000412C
:100E600001B1012070470000103C0240230167459A
:100E7000AB89EFCDF8B502460B46002500240020D3
:100E80000021D6E0012606FA01F51E6806EA0504EF
:100E9000AC4274D11E7906F00306012E04D01E79EF
:100EA00006F00306022E13D190684F000326BE40C1
:100EB000B0434F00DE68BE4030439060506801266A
:100EC0008E40B0431E79C6F300168E40304350600A
:100ED0001E7906F00306032E09D0D0684F000326C2
:100EE000BE40B0434F009E68BE403043D0601E7984
:100EF00006F00306022E13D1CF0802F1200656F8A1
:100F000027004E07F70E0F26BE40B0434F07FF0ED7
:100F10001E69BE403043CF0802F1200646F8270084
:100F200010684F000326BE40B0431E7906F003064A
:100F30004F00BE40304310605E6806F44036002E1D
:100F400076D000BF002600963C4E366846F48046B8
:100F50003A4F3E603E46366806F48046009600BF33
:100F600000BF374E8F0856F827008E07370F0F2621
:100F7000BE40B043334EB24202D1002624E057E0D7
:100F8000314EB24201D101261EE0304EB24201D1B3
:100F9000022619E02E4EB24201D1032614E02D4E56
:100FA000B24201D104260FE02B4EB24201D10526F8
:100FB0000AE02A4EB24201D1062605E0284EB2428E
:100FC00001D1072600E008268F073F0FBE403043BF
:100FD0001B4E8F0846F82700224E3068A0435E68FB
:100FE00006F4801606B120431E4E3060361D306870
:100FF000A0435E6806F4001606B12043194E361D64
:101000003060184E361F3068A0435E6806F4003624
:1010100006B12043134E361F3060361F3068A043A0
:101020005E6806F4803606B120430E4E083E3060FE
:10103000491C1029FFF426AFF8BD000044380240D7
:10104000083801400000024000040240000802404D
:10105000000C024000100240001402400018024040
:10106000001C0240083C0140024613690B400BB1D2
:10107000012000E00020704710B5426921EA020318
:1010800002EA010443EA0443836110BD0AB18161AD
:1010900001E00B048361704701480068704700005D
:1010A000E8400020034800680349097808440149E2
:1010B00008607047E8400020F040002010B50D485F
:1010C000006840F400700B4908600846006840F46E
:1010D000806008600846006840F480700860032063
:1010E00000F0D6F80F2000F007F800F055F80020C7
:1010F00010BD0000003C0240F0B587B00446002659
:10110000002700BF002000901E48006840F4003017
:101110001C4908600846006800F40030009000BFD9
:1011200000BF01A902A800F0C7F800F0FDF84600D2
:101130001548B6FBF0F0471E14481549086040F208
:10114000E7311348C160476000210161816081611E
:1011500000F0FCF8054695B90D4800F02BF905465E
:101160006DB9192000F042F8102C07D20022214658
:10117000192000F04FF80748046000E001252846D8
:1011800007B0F0BD4438024040420F000044014027
:101190002C420020EC40002008B500BF0020009049
:1011A0001148006840F480400F4908600846006814
:1011B00000F48040009000BF00BF00BF00200090FE
:1011C000081F006840F08050091F0860084600684A
:1011D00000F08050009000BF00BF00220F21901E41
:1011E00000F018F808BD00004438024001460846E7
:1011F00000280DDB00BF00BF00F01F0301229A4052
:1012000043099B0003F1E023C3F8002100BF00BFA6
:1012100000BF70472DE9F05F80460D461646002757
:1012200002F05EF8074639462A46334601F00700C9
:10123000C0F1070ABAF1040F02D94FF0040A01E025
:10124000C0F1070AD14600F1040ABAF1070F02D231
:101250004FF0000A01E0A0F1030AD4464FF0010A62
:101260000AFA09FAAAF1010A0AEA020A0AFA0CFAC7
:101270004FF0010B0BFA0CFBABF1010B0BEA030B6C
:101280004AEA0B042146404602F032F8BDE8F09FDE
:1012900000BF00F00702064B19684FF6FF03194024
:1012A000044B0B4343EA0221014B196000BF704716
:1012B0000CED00E00000FA050F2202600D4A1268F2
:1012C00002F0030242600B4A126802F0F0028260F0
:1012D000084A126802F4E052C260064A126802F438
:1012E0006042D2080261044A126802F007020A60F2
:1012F0007047000008380240003C02400148006886
:1013000070470000F440002000B5FFF7F7FF0449E4
:101310000968C1F38221034A515CC84000BD000046
:10132000083802404C5D000800B5FFF7E7FF0449AC
:101330000968C1F34231034A515CC84000BD000056
:10134000083802404C5D00087047704710B50446ED
:101350000CB9012010BD94F83D0028B9002084F894
:101360003C00204600F025F8022084F83D00211DB5
:10137000206800F083FF012084F8460000BF84F855
:101380003E0001213F2001554020015541200155DB
:1013900000BF00BF012084F84200432001554420D3
:1013A00001554520015500BF012084F83D00002073
:1013B000D0E77047014691F83D00012801D0012097
:1013C0007047022081F83D000868C06840F00100C5
:1013D0000B68D8601A4B086898421BD00868B0F1B7
:1013E000804F17D0174B0868984213D0164B0868E7
:1013F00098420FD0154B086898420BD0144B0868E0
:10140000984207D0134B0868984203D0124B0868E3
:1014100098420CD10868806800F00702062A0CD0B8
:101420000868006840F001000B68186005E0086873
:10143000006840F001000B6818600020C0E7000061
:10144000000001400004004000080040000C004083
:10145000000401400040014000180040704770B592
:1014600004462068C5682068066906F00200022864
:1014700019D105F00200022815D1401F216808612A
:10148000012020772068806900F0030018B1204611
:10149000FFF7E4FF05E0204600F097F8204600F053
:1014A00095F80020207706F00400042819D105F0F3
:1014B0000400042815D1C043216808610220207768
:1014C0002068806900F4407018B12046FFF7C6FF1D
:1014D00005E0204600F079F8204600F077F800207B
:1014E000207706F00800082819D105F00800082820
:1014F00015D1C04321680861042020772068C069A5
:1015000000F0030018B12046FFF7A8FF05E02046D1
:1015100000F05BF8204600F059F80020207706F034
:101520001000102819D105F01000102815D1C04363
:1015300021680861082020772068C06900F44070A5
:1015400018B12046FFF78AFF05E0204600F03DF87D
:10155000204600F03BF80020207706F0010048B15B
:1015600005F0010030B16FF00100216808612046EC
:1015700000F02EF806F08000802809D105F08000E8
:10158000802805D1C043216808612046FFF7DCFEB2
:1015900006F04000402809D105F04000402805D160
:1015A000C04321680861204600F01EF806F02000C4
:1015B000202809D105F02000202805D1C04321684A
:1015C00008612046FFF7C1FE70BD704770470000FC
:1015D00010B5044603492068884201D1FFF762FD37
:1015E00010BD000000440140704710B504460CB91E
:1015F000012010BDA06900B100E000BF94F84100D7
:1016000028B9002084F84000204600F029F8242062
:1016100084F841002068C06820F400502168C86048
:10162000204601F07DF82068006920F49040216890
:1016300008612068406920F02A002168486120681C
:10164000C06840F400502168C86000206064202019
:1016500084F8410084F842000020606300BFC8E7BE
:1016600010B586B00446142101A8FEF755FE1F49A7
:101670002068884237D100BF002000901C480068D5
:1016800040F400301A4908600846006800F4003051
:10169000009000BF00BF00BF002000901448103829
:1016A000006840F0010012491039086008460068DF
:1016B00000F00100009000BF00BF0C20019002204C
:1016C000029000200390032004900720059001A9B8
:1016D0000848FFF7CFFB002205212620FFF79AFDDF
:1016E0002620FFF783FD06B010BD00000044004037
:1016F00040380240000002402DE9F84F04460E46F3
:10170000174699464FF0000A94F84100202850D11E
:1017100006B117B90120BDE8F88F002060642120D0
:1017200084F84100FFF7B8FC8246A784E784A068EC
:10173000B0F5805F04D1206910B90025B04602E001
:1017400035464FF000081EE0534600228021204617
:10175000CDF8009001F0FAF820B1202084F8410083
:101760000320D8E745B9B8F80000C0F308002168A5
:10177000486008F1020803E02878216848606D1C81
:10178000E08C401EE084E08C0028DDD1534600222E
:1017900040212046CDF8009001F0D8F820B120205B
:1017A00084F841000320B6E7202084F8410000209F
:1017B000B1E70220AFE700BFFEE700002DE9F041EE
:1017C0000B46154A00210126002418E0B3FBF2F76E
:1017D0004FF00A0CB7FBFCF80CFB187515B90EB1ED
:1017E000012A08D1002605F1300707F0FF080F464F
:1017F000491C00F807800A27B2FBF7F2641C0A2C88
:10180000E4D329B94FF0300C0D46491C00F805C04F
:1018100000254554BDE8F08100CA9A3B10B572B668
:1018200071B60D4800680D490840B0F1005F10D155
:101830000949086880F3088800BF084640680849DD
:101840000860084600680749086008460068804745
:1018500001E0FEF7A8FE10BD000001080000FE2F09
:101860007C41002078410020FEF734FE00BF4FF499
:1018700000710348FFF700FCC82002F051F8F6E7BA
:101880000014024010B5074A0021074802F09EF8F4
:1018900006490860064A0021064802F097F8064902
:1018A000086010BDF45C000845210008C04000201D
:1018B000185D000869180008C440002000B587B012
:1018C000142102A8FEF728FD00BF002001901F4848
:1018D000006840F020001D4908600846006800F0DC
:1018E0002000019000BF00BF00BF0020019008460B
:1018F000006840F0800008600846006800F0800042
:10190000019000BF00BF00BF0020019008460068A2
:1019100040F0010008600846006800F001000190F6
:1019200000BF00BF00224FF4C0610948FFF7AEFBC3
:101930004FF4C060029001200390002004900590B5
:1019400002A90348FFF796FA07B000BD30380240FD
:101950000014024010B50B480B4908604FF4E13009
:101960004860002108488160C16001610C2141612B
:1019700000218161C161FFF738FE08B1FEF713FE57
:1019800010BD000000440040E441002000BFFEE71D
:1019900000BFFEE72DE9FE4305460F4690460026B0
:1019A000012068700020A870FF20E870002403E088
:1019B000395D201D2954641C385D08B1402CF7D3D3
:1019C0000021201D295441466846FFF7F7FE641D9B
:1019D00006E03046761C1DF800202046641C2A5480
:1019E0001DF806000028F4D1264602E00020A85584
:1019F000761C842EFAD3BDE8FE83F0B50746144664
:101A0000B3F5806F02D34FF4806C01E04FF0800C8F
:101A10006246934201D29C4600E094466646B2F587
:101A2000806F04D14FF0020C81F801C003E04FF049
:101A3000010C81F801C08C706FEA040C81F803C0BE
:101A40003D46042004E015F801CB01F800C0401C1D
:101A500006F1040C6045F6D396420AD8301D04E026
:101A60004FF01A0C01F800C0401C02F1040C604554
:101A7000F6D3F0BD2DE9F84304460E469046002506
:101A800000203060434601226946022001F0B4F98B
:101A90000746002F53D19DF80000182812D006DC0D
:101AA000012809D0022809D004281DD109E04128C5
:101AB00017D0612818D115E0802517E04FF4806514
:101AC00014E013E0434601226946022001F094F934
:101AD00028B99DF80000182801D1022500E001274F
:101AE00004E000BF022701E0012700BF00BF9DF80E
:101AF00000002070802D22D3281D82B24346A11CF5
:101B0000022001F079F90746C7B9A078E17881F0A1
:101B1000FF01884202D00025012710E0281D205C2B
:101B20004FEA0029681D205C81442946201DFEF7EC
:101B300002FD484503D00025012700E0002535605F
:101B40003846BDE8F8830146002200BF501C83B22E
:101B50001A46012098408842F8DD501E83B21A468A
:101B60000120984080B270472DE9F04104460E46AE
:101B700015462089E188401A80B2A84201DD284636
:101B800003E02089E188401A80B20546E088A188F8
:101B9000491E0840A188081A80B2A84201DD2846E3
:101BA00006E0E088A188491E0840A188081A80B292
:101BB0000746E088A288521E1040226881183A46E3
:101BC0003046FEF790FBEA1BF0192168FEF78BFB0D
:101BD000E0882844E0802846BDE8F08101468888F6
:101BE0000A89801ACA88104480B2704770B50446CA
:101BF0000E4615460020E080208126602846FFF72B
:101C0000A2FFA08070BD2DE9F04104460F461546A5
:101C1000A0882189401AE188084480B2A84201DDE9
:101C2000284605E0A0882189401AE188084480B24E
:101C300005462089A188491E0840A188081A80B25B
:101C4000A84201DD284606E02089A188491E0840F7
:101C5000A188081A80B206462189A288521E114026
:101C60002268881832463946FEF73DFBAA1BB9198F
:101C70002068FEF738FB2089284420812846BDE8EB
:101C8000F08100001FB500200190029003900090A9
:101C90001AA000F02BF9684601F0FEF80446B4B92A
:101CA000254800F023F9254800F020F901A8009903
:101CB000FFF784FD22A000F019F901A800F016F941
:101CC00022A000F013F924A000F010F914E0052C74
:101CD00003D127A000F00AF90EE0042C03D134A0B0
:101CE00000F004F908E0022C03D138A000F0FEF85F
:101CF00002E03CA000F0FAF81FBD000057616974D3
:101D0000696E6720666F72207468652066696C650D
:101D100020746F2062652073656E74202E662E2EEF
:101D2000202870726573732027612720746F2061EB
:101D3000626F7274290A0D00B4600008488F002099
:101D40000A0D2053697A653A200000002042797418
:101D500065730D0A000000002D2D2D2D2D2D2D2D2C
:101D60002D2D2D2D2D2D2D2D2D2D2D0A000000007A
:101D70000A0A0D54686520696D6167652073697A88
:101D80006520697320686967686572207468616E90
:101D90002074686520616C6C6F7765642073706176
:101DA0006365206D656D6F7279210A0D000000007A
:101DB0000A0A0D566572696669636174696F6E20FF
:101DC0006661696C6564210A0D0000000D0A0A4114
:101DD000626F7274656420627920757365722E0A71
:101DE0000D0000000A0D4661696C656420746F2067
:101DF00072656365697665207468652066696C65DF
:101E0000210A0D0001480078704700008841002039
:101E100008B50020009010A000F068F84FF0FF33E4
:101E200001226946022000F0E7FF9DF800004328E8
:101E300010D14FF4E0220FA1144801F01BF90090DB
:101E40009DF8000018B112A000F050F802E01BA0AD
:101E500000F04CF808BD00000A0A0D53656C65637C
:101E60007420526563656976652046696C650A0D64
:101E70000000000055706C6F61646564466C6173AE
:101E800068496D6167652E62696E00000000010897
:101E90000A0D4572726F72204F63637572726564CA
:101EA000207768696C65205472616E736D69747413
:101EB000696E672046696C650A0D00000A0D466967
:101EC0006C652075706C6F61646564207375636305
:101ED00065737366756C6C79200A0D0001B501227B
:101EE0006946022000F078FD002008BD70B5044668
:101EF000002501E0681C85B2605D0028FAD12A4601
:101F00002146022000F068FD70BD000008B50020E9
:101F1000009000BF4248FFF7E9FF4248FFF7E6FFA5
:101F20004148FFF7E3FF4148FFF7E0FF3C48FFF778
:101F3000DDFF3FA0FFF7DAFF71E0FEF7D1FB3E497E
:101F40000860FEF7CDFB044621463CA001F0B8F93D
:101F50004348FFF7CBFF4348FFF7C8FF4248FFF76E
:101F6000C5FF4248FFF7C2FF3F48FFF7BFFF3248B7
:101F7000006818B13E48FFF7B9FF02E03D48FFF79F
:101F8000B5FF2BA0FFF7B2FF3BA0FFF7AFFF3D4827
:101F9000FFF7ACFF4FF0FF3301226946022000F04B
:101FA0002BFF9DF800003138052836D2DFE800F01D
:101FB0000306090C3400FFF765FE2FE0FFF728FF4A
:101FC0002CE0FFF72BFC29E01B480068002812D00A
:101FD0000020FEF7F1FB50B92BA0FFF787FF32A0DE
:101FE000FFF784FFFEF7C0FEFEF72AFF13E036A0DE
:101FF000FFF77CFF0FE00120FEF7DEFB40B93EA0BB
:10200000FFF774FF28A0FFF771FFFEF7ADFE02E0B7
:1020100041A0FFF76BFF01E000E000BF00BF8CE7CD
:1020200018600008305F00087C5F0008E45E00086C
:102030000D0A0D0A0000000084410020466C617307
:10204000682070726F74656374696F6E2073746159
:102050007475733A203078253034580A0000000037
:10206000C85F0008685D0008B45D0008005E0008F5
:102070004C5E0008985E00084E6F746963653A20F4
:102080000D0A000064600008577269746520507280
:102090006F74656374696F6E2064697361626C65E7
:1020A000642E2E2E0D0A000053797374656D20770F
:1020B000696C6C206E6F7720726573746172742E18
:1020C0002E2E0D0A000000004572726F723A2046F3
:1020D0006C61736820777269746520756E2D7072FB
:1020E0006F74656374696F6E206661696C65642ED8
:1020F0002E2E0D0A00000000577269746520507280
:102100006F74656374696F6E20656E61626C65647F
:102110002E2E2E0D0A0000004572726F723A204674
:102120006C6173682077726974652070726F746572
:102130006374696F6E206661696C65642E2E2E0D66
:102140000A00000000BF012001F0EAFBFBE770B5C8
:1021500002460C460021002000231578302D3ED188
:102160005578782D02D05578582D38D102212BE0A2
:10217000555C412D02DB555C462D0BDD555C612D18
:1021800002DB555C662D05DD555C302D19DB555C99
:10219000392D16DC555C302D05DB555C392D02DC04
:1021A000555C303D0AE0555C412D05DB555C462D04
:1021B00002DC555C373D01E0555C573D05EB0313F0
:1021C00001E0002005E0491C0B2902D2555C002DDE
:1021D000CED100BF555C9DBB2360012030E02AE0DA
:1021E000555C15B92360012024E0555C6B2D02D0AD
:1021F000555C4B2D04D119B19B022360012019E0DD
:10220000555C6D2D02D0555C4D2D04D119B11B05C7
:10221000236001200EE0555C302D09DB555C392D23
:1022200006DC555C303D03EB830605EB460301E01D
:10223000002004E0491C0B2901D20128D0D100BFA5
:1022400070BD10B54FF0E020006903F0ABFA012833
:1022500001D002F0DBFD10BD0348006840F47000BF
:10226000014908607047000088ED00E010B50248A1
:10227000FFF7F5F810BD00002C42002010B50268F1
:102280002B4B98420ED0B0F1804F0BD0294B984287
:1022900008D0294B984205D0284B984202D0284BB1
:1022A000984203D122F070024B681A43204B9842A7
:1022B00020D0B0F1804F1DD01E4B98421AD01E4B3B
:1022C000984217D01D4B984214D01D4B984211D004
:1022D0001C4B98420ED01C4B98420BD01B4B984283
:1022E00008D01B4B984205D01A4B984202D01A4B8B
:1022F000984203D122F44072CB681A4322F0800343
:102300004C6943EA04028B68C3620B688362084B22
:10231000984202D00A4B984201D10B6903630368CB
:1023200043F00403036001234361026010BD000019
:10233000000001400004004000080040000C004084
:1023400000040140004001400044014000480140B9
:1023500000180040001C00400020004038B5002458
:1023600000252F480068C06800F0200058B32C48B2
:1023700000680068C0F3401028B3FFF743FD012850
:1023800022D0274800684068C0B200900122694608
:102390002448FFF738FC05462248FFF71FFCC0F52C
:1023A000006084B220488088A04201DA204601E023
:1023B0001D4880881C49888008460068C5F10101D5
:1023C00008441949086009E0154800684068C0B22F
:1023D000009001226946022000F0FEFA10480068D1
:1023E000C06800F08000C8B10D4800680068C0F304
:1023F000C01098B1012269460C48FFF7B5FB28B11F
:102400009DF8000006490968486007E00448006834
:10241000C06820F0800002490968C86038BD00002B
:102420008094002068940020CC4100207494002007
:1024300000BF00BF02680C3252E8002F22F49071F6
:1024400002680C3242E80013002BF3D100BF00BF3A
:1024500000BF0268143252E8002F22F00101026826
:10246000143242E80013002BF3D100BF016B0129A5
:102470000ED100BF00BF02680C3252E8002F22F0DC
:10248000100102680C3242E80013002BF3D100BFA8
:10249000202180F8421000210163704770B5054685
:1024A0000C46012D06D0022D2AD0032D4CD0042D30
:1024B00072D172E040224D494D48FFF797FB402210
:1024C0004C494D48FFF792FB4C484D49086008467F
:1024D000446000218160C160016181610C21416122
:1024E0000021C161FFF781F845480068C06840F0ED
:1024F000200043490968C8604248FDF780FF72E048
:10250000402241494148FFF771FB4FF400624049C6
:102510004048FFF76BFB404840490860084644606C
:1025200000218160C160016181610C214161002154
:10253000C1610068C06840F0200038490968C8607F
:102540003748FDF75CFF4EE04FF4005235493648FE
:10255000FFF74CFB4FF4006234493548FFF746FB68
:102560003448354908600846446000218160C160F4
:10257000016181610C2141610021C161FFF735F8E2
:102580002D480068C06840F020002B490968C860E9
:102590002A48FDF734FF26E024E04FF40062284982
:1025A0002848FFF723FB4FF4006227492748FFF72D
:1025B0001DFB2748274908600846446000218160C8
:1025C000C160016181610C2141610021C16100682C
:1025D000C06840F020001F490968C8601E48FDF728
:1025E0000EFF00E000BF00BF70BD00000000002033
:1025F00090930020400000209C9300200010014098
:10260000A8930020A041002080000020F09300202B
:10261000C0000020FC93002000440040E441002062
:10262000B4410020C008002008940020C0280020E9
:10263000149400200048004020940020C84100204D
:10264000C030002068940020C0380020749400201E
:10265000004C004080940020DC4100202DE9F04136
:1026600004460D461646012C06D0022C13D0032C2E
:1026700020D0042C3CD12CE021480068FDF7CEFE90
:10268000324629461F48FFF76FFA07461C48006884
:10269000FDF7D5FE30E01C480068FDF7BFFE32466E
:1026A00029461A48FFF760FA074617480068FDF701
:1026B000C6FE21E016480068FDF7B0FE3246294606
:1026C0001448FFF751FA074611480068FDF7B7FEB6
:1026D00012E011480068FDF7A1FE324629460F4876
:1026E000FFF742FA07460C480068FDF7A8FE03E032
:1026F0004FF0FF30BDE8F08100BF3846FAE7000038
:10270000A041002090930020B4410020F0930020CD
:10271000C841002008940020DC410020689400207B
:102720002DE9F84F04462068006920F44050E16824
:102730000843216808612169A0680843616908436A
:10274000E169084300902068C06849F20C61884341
:10275000009908432168C8602068406920F44070EF
:10276000A16908432168486176492068884203D0FE
:1027700075492068884203D1FEF7D6FD814602E004
:10278000FEF7C2FD8146E069B0F5004F6CD1022032
:102790006168A0FB015003461920A9FB00700146A7
:1027A0002A463846FDF76EFD6421B0FBF1F04FEA92
:1027B000001A02206168A0FB01510B461920A9FBF9
:1027C00000712A463846FDF75DFD834602206168A8
:1027D000A0FB015003461920A9FB00712A46384688
:1027E000FDF750FD6421B0FBF1F000EBC00101EBFF
:1027F0000010ABEB8000322101EBC0006421B0FB84
:10280000F1F000F0F8000AEB400A02206168A0FB3A
:10281000015003461920A9FB007001462A4638469C
:10282000FDF730FD834602206168A0FB015003469E
:102830001920A9FB00712A463846FDF723FD6421C3
:10284000B0FBF1F000EBC00101EB0010ABEB80003E
:10285000322101EBC0006421B0FBF1F000F0070071
:102860005044216888606AE004206168A0FB015040
:1028700003461920A9FB007001462A463846FDF799
:1028800001FD824604206168A0FB01500346192027
:10289000A9FB007001462A463846FDF7F3FC642187
:1028A000B0FBF1F000EBC00101EB0010AAEB8000DF
:1028B000322101EB00106421B0FBF1F000F0F00ACE
:1028C00004206168A0FB017003461920A9FB005198
:1028D0003A462846FDF7D6FC6421B0FBF1F00AEB3E
:1028E000001A04206168A0FB01510B461920A9FBC6
:1028F00000712A463846FDF7C5FC8346042061680E
:10290000A0FB015003461920A9FB007001462A468E
:102910003846FDF7B7FC6421B0FBF1F000EBC001D5
:1029200001EB0010ABEB8000322101EB00106421C1
:10293000B0FBF1F000F00F00504421688860BDE862
:10294000F88F000000100140001401402DE9F84309
:1029500004460D4617469846089E31E0701C70B339
:10296000FEF79AFBA0EB0800B04200D816B903208E
:10297000BDE8F8832068C06800F00400F8B1802D3D
:102980001ED0402D1CD020680068C0F3C000B0B13C
:1029900000BF002000902068006800902068406818
:1029A000009000BF00BF2046FFF742FD0820606492
:1029B00000BF002084F8400000BF0120D8E7FFE7F7
:1029C000206800682840A84201D1012000E00020D2
:1029D000B842C3D00020CBE72DE9F0410746884636
:1029E00015460026012F06D0022F31D0032F5CD0D0
:1029F000042F78D187E05E480068FDF70FFD2A4676
:102A000041465C48FFF7FFF804465B480068C06831
:102A100040F0800058490968C8605648FFF7DEF862
:102A2000C0F1400086B255488088B04201DA304695
:102A300001E0524880885149888008460068291B77
:102A400008444E4908604A480068FDF7F8FC8BE0EE
:102A50004B480068FDF7E2FC2A4641464948FFF72B
:102A6000D2F8044648480068C06840F080004649F3
:102A70000968C8604348FFF7B1F8C0F5006086B246
:102A800042488088B04201DA304601E03F48808801
:102A90003E49888008460068291B08443B49086075
:102AA00037480068FDF7CBFC5EE039480068FDF769
:102AB000B5FC2A4641463748FFF7A5F80446364894
:102AC0000068C06840F0800033490968C860314838
:102AD000FFF784F8C0F5006086B230488088B042C5
:102AE00002DA304602E03BE02C4880882B4988809F
:102AF00008460068291B08442849086024480068E3
:102B0000FDF79DFC30E026480068FDF787FC2A466B
:102B100041462448FFF777F8044623480068C06818
:102B200040F0800020490968C8601E48FFF756F849
:102B3000C0F5006086B21D488088B04201DA304698
:102B400001E01A4880881949888008460068291BD6
:102B500008441649086012480068FDF770FC03E05D
:102B60004FF0FF30BDE8F08100BF2046FAE70000DB
:102B7000A04100209C930020A893002098410020B1
:102B8000B4410020FC930020E4410020AC4100202F
:102B9000C84100201494002020940020C04100204F
:102BA000DC4100207494002080940020D441002057
:102BB00038B50024002527480068C06800F02000D0
:102BC00038B3244800680068C0F3401008B32148B7
:102BD00000684068C0B20090012269461E48FFF7B5
:102BE00012F805461C48FEF7F9FFC0F1400084B218
:102BF0001A488088A04201DA204601E01748808800
:102C00001649888008460068C5F101010844134947
:102C1000086010480068C06800F08000C8B10D4826
:102C200000680068C0F3C01098B1012269460C48E2
:102C3000FEF79AFF28B19DF8000006490968486030
:102C400007E004480068C06820F080000149096876
:102C5000C86038BDA89300209093002090410020C8
:102C60009C93002038B5002400254FF48061304843
:102C7000FEF702FA2F480068C06800F0200058B341
:102C80002C4800680068C0F3401028B3FFF7BAF87A
:102C9000012822D0274800684068C0B20090012275
:102CA00069462548FEF7AFFF05462348FEF796FF25
:102CB000C0F1400084B221488088A04201DA204659
:102CC00001E01E4880881D49888008460068C5F1DB
:102CD000010108441949086009E016480068406885
:102CE000C0B20090012269460420FFF775FE11482A
:102CF0000068C06800F08000C8B10E480068006835
:102D0000C0F3C01098B1012269460D48FEF72CFFB0
:102D100028B19DF8000007490968486007E00548A8
:102D20000068C06820F0800002490968C86038BDAA
:102D300000140240E4410020F0930020A441002050
:102D4000FC93002038B50024002527480068C0689F
:102D500000F0200038B3244800680068C0F3401039
:102D600008B3214800684068C0B20090012269465B
:102D70001E48FEF748FF05461C48FEF72FFFC0F52A
:102D8000005084B21A488088A04201DA204601E04F
:102D9000174880881649888008460068C5F10101F7
:102DA00008441349086010480068C06800F08000BB
:102DB000C8B10D4800680068C0F3C01098B1012286
:102DC00069460C48FEF7D0FE28B19DF80000064980
:102DD0000968486007E004480068C06820F0800087
:102DE00001490968C86038BD20940020089400207B
:102DF000B8410020149400202DE9F04782460F4688
:102E0000164698460025A94614E0701B82B279192F
:102E10005046FFF723FC0446002C01DD281985B23B
:102E2000B54202D10020BDE8F0870120FDF746FB46
:102E300009F10109C145E8D90320F4E72DE9F04182
:102E400005460E4614469846224631462846FFF768
:102E5000C3FD0746A74202D10020BDE8F081012052
:102E6000FBE710B503460C46194644F4807200BFD8
:102E70004900520002F4807000B1491C01F4803016
:102E800010B141F22100414002F480300028EFD01F
:102E900088B210BD00BFFEE72DE9F04F89B00646AD
:102EA0004FF0000BD9460020069080466B486C49D5
:102EB0000860C7E0002700200790BDE041F288329B
:102EC00008A96848FEF7D6FD10B1022874D197E032
:102ED0004FF00009089838B102280BD10620FEF700
:102EE000FDFF4FF0020889E00620FEF7F7FF012002
:102EF000079083E05B488078F9B2884203D01520C0
:102F0000FEF7ECFF79E0002F57D1564800790028F2
:102F10004BD00025534C241D05E014F8012B284606
:102F20006D1C51490A54207808B1402DF5D3002278
:102F300028466D1C4C490A540025641C05E014F811
:102F4000012B28466D1C01A90A542078202801D0A5
:102F5000102DF4D3002228466D1C01A90A5405A99E
:102F600001A8FFF7F4F841493068884210D91820C9
:102F700000900B05012269460220FFF75FFF4FF426
:102F80008013012269460220FFF758FF4FF0050821
:102F900037493248FDF774FB059830600620FEF78C
:102FA0009DFF4320FEF79AFF24E00620FEF796FFE0
:102FB00001200790834621E02BE0DFF8A8A00AF16A
:102FC000040A51462648089A0068FDF79FFB48B955
:102FD0002348006808990844214908600620FEF744
:102FE0007DFF07E01820FEF779FF1820FEF776FF37
:102FF0004FF004087F1C0120069000BF00BF1AE0BC
:103000001820FEF76BFF1820FEF768FF4FF002084C
:1030100011E0069808B109F10109B9F1050F06D9C7
:103020001820FEF75BFF1820FEF758FF02E0432050
:10303000FEF754FF00BF00BF079818B9B8F1000FA2
:103040003FF43CAFBBF1000F03D1B8F1000F3FF4E8
:1030500031AF404609B0BDE8F08F00000000010824
:103060008C410020888F0020488F0020010007003D
:10307000FFFF07082DE9F74F82B00025AB46A846B1
:103080000027012001908D48DDE90312FEF782FC44
:103090003BE04FF4801383228849491C0220FFF74C
:1030A000CDFE80218548001DFDF745FA0446200A23
:1030B000FEF714FFE0B2FEF711FF4FF48013012278
:1030C00069460220FFF798FED8B99DF8000006284F
:1030D00002D14FF0010B15E09DF80000182811D126
:1030E0004FF48013012269460220FFF785FE48B99C
:1030F0009DF80000182805D10220FDF765FD022784
:1031000000E06D1C052D00D30127BBF1000F01D19C
:10311000002FBED0DDF80890DDF8108053E0019854
:10312000C2B2434665494846FEF767FC4FF0000BC4
:1031300000208DF80000002540E0B8F5806F02D334
:103140004FF4806600E08026F01C82B24FF48013BA
:103150005A49491C0220FFF771FE31465748001DAD
:10316000FDF7E9F90446200AFEF7B8FEE0B2FEF7E3
:10317000B5FE4FF48013012269460220FFF73CFEA2
:10318000C0B99DF80000062814D14FF0010BB045DE
:103190000CD9B144A8EB06080198B0F5E07F01D145
:1031A000052708E00198401C019004E0B1444FF06D
:1031B000000800E06D1C052D00D30127BBF1000FB6
:1031C00001D1002FB9D0B8F1000F01D0002FA6D047
:1031D0004FF0000B00208DF8000000252AE00420AD
:1031E000FEF77CFE4FF48013012269460220FFF7B0
:1031F00003FED8B99DF80000062802D14FF0010B5C
:1032000015E09DF80000182811D14FF48013012219
:1032100069460220FFF7F0FD48B99DF80000182824
:1032200005D10220FDF7D0FC022700E06D1C052D22
:1032300000D30127BBF1000F01D1002FCFD0C7BBB6
:1032400001201E49487000208870FF20C8704FF090
:10325000040A07E00020194901F80A000AF10100F8
:1032600000F0FF0ABAF1840FF4D34FF480138322E5
:103270001249491C0220FFF7E1FD80210F48001D83
:10328000FDF759F90446200AFEF728FEE0B2FEF7E2
:1032900025FE4FF48013012269460220FFF7ACFDA2
:1032A00038B99DF80000182803D10220FDF78CFCE6
:1032B0000227384605B0BDE8F08F0000888F002057
:1032C0000FB4054B10B503A9044A029800F036F874
:1032D00010BC5DF814FB000095370008E0410020A9
:1032E00002480068C0F30220704700000CED00E0C7
:1032F00010B5002804DB0A07130E054A135406E034
:103300000A07140E034A00F00F031B1FD45410BD0C
:1033100000E400E018ED00E0EFF30580704702E004
:1033200008C8121F08C1002AFAD170477047002050
:1033300001E001C1121F002AFBD170472DE9FF4FA8
:103340008DB00F460546002606E025280BD0DDE9A6
:103350000F1290476D1C761C28780028F5D111B00B
:103360003046BDE8F08F0024A246A1460122E9497B
:1033700000E0044315F8013F203B02FA03F0084245
:10338000F7D128782A2810D06FF02F022878A0F1E2
:103390003001092914D80AEB8A0102EB410144F0FB
:1033A000020400EB010A6D1CF0E701CF5FEA000A9E
:1033B00003D544F40054CAF1000A44F002046D1C21
:1033C00028782E2817D115F8010F44F004042A2874
:1033D0000ED06FF02F022878A0F1300109290AD809
:1033E00009EB890102EB410100EB01096D1CF2E7D9
:1033F00057F8049B6D1C28786C280FD006DC4C28ED
:1034000017D068280DD06A2814D104E0742810D091
:103410007A280FD10DE044F400140AE044F480143B
:1034200001E044F440146978814202D104F580142B
:103430006D1C6D1C28786E281ED00CDC632830D0E3
:1034400004DC00288BD0582811D19FE0642867D075
:1034500069280CD164E073282DD004DC6F2872D069
:10346000702804D194E075286ED078286DD0DDE9FD
:103470000F129047761C4BE1C4F30250022806D08D
:10348000032809D0042801CF09D0066040E101CF0C
:10349000F117C0E900613BE101CF068038E1067019
:1034A00036E117F8040B8DF8000000208DF80100BC
:1034B000EB46012003E057F804BB4FF0FF306107F3
:1034C0004FF0000102D40DE008F1010188464945A2
:1034D0000FDA8045F8DB1BF808100029F4D108E06A
:1034E00008F1010188468142FADB1BF80810002927
:1034F000F6D1DDE90F23AAEB08008146214600F052
:1035000031F9304400EB080604E0DDE90F121BF846
:10351000010B9047B8F10108F7D221464846F2E086
:103520000A21C4F302524FF0000B0891022A04D082
:1035300001CFC117032A09D00AE0FF1D27F00707B2
:10354000F7E8020108E02CE01EE01FE000B2C1171E
:10355000042A01D140B2C117021E71F1000206DA3D
:103560000023D0EB030063EB01012D2202E02205D2
:1035700004D52B228DF82420012203E0E20701D09C
:103580002022F7E7904653E00A210BE0102109E0E2
:1035900010214FF0000B44F004044FF0080908918B
:1035A00003E008214FF0000B0891C4F30252022AF5
:1035B00004D001CF0021032A06D006E0FF1D27F02A
:1035C0000707F7E8020103E080B2042A00D1C0B285
:1035D0004FF0000822072BD52A78702A07D0DDF893
:1035E00020C08CF0100C5CEA0B0C05D00EE04022E1
:1035F0008DF82420012208E050EA010306D0302390
:103600008DF824308DF8252002229046089B83F007
:10361000080353EA0B030BD150EA010201D1620700
:1036200006D530228DF824204FF00108A9F10109B8
:103630002A78582A04D038A20B9208AA0A920BE0E2
:103640003AA2F9E75B46089AFCF71CFE0B9B9B5CD1
:103650000A9A521E0A92137050EA0102F2D10A9895
:10366000ADEB000000F1200B600702D524F480349C
:1036700001E04FF00109D94502DDA9EB0B0000E0A4
:10368000002000EB0B0141440890AAEB010AE00383
:1036900006D4DDE90F232146504600F063F80644C6
:1036A0004FF0000908E009A911F80900DDE90F123F
:1036B000904709F10109761CC145F4DBE0030CD504
:1036C000DDE90F232146504600F04CF8064404E0A3
:1036D000DDE90F1230209047761C0899481E0890AB
:1036E0000029F5DC08E00A980A990078491C0A913B
:1036F000DDE90F129047761CBBF10001ABF1010B25
:10370000F1DC21465046DDE90F2300F019F80644AC
:103710006D1C21E60928010030313233343536374B
:10372000383961626364656600000000303132330D
:1037300034353637383941424344454600000000AD
:103740002DE9F041044600251E461746880404D49E
:1037500005E039462020B0476D1C641EF9D5284687
:10376000BDE8F0812DE9F041044600251E46904653
:10377000C80301D5302700E02027880404D505E0E0
:1037800041463846B0476D1C641EF9D52846BDE851
:10379000F081000013B50C464FF6FF730122694615
:1037A0000248FDF7A9FF00981CBD0000E44100207D
:1037B000FDF784FCFEF782F8FEF7CCF800F0C0F8C5
:1037C000FEF760F820480068C0F3406010B11FA009
:1037D000FFF776FD1C480068C0F3806010B121A09F
:1037E000FFF76EFD18480068C0F3C06010B124A058
:1037F000FFF766FD14480068C0F3007010B127A001
:10380000FFF75EFD10480068C0F3407010B12AA0B9
:10381000FFF756FD0C480068C0F3807010B130A06F
:10382000FFF74EFD08480068C00F10B135A0FFF744
:1038300047FD0548006840F080700349086000F0CB
:1038400095F800BFFEE700007438024052657365CA
:10385000742063617573656420627920424F520A57
:1038600000000000526573657420636175736564C0
:10387000206279204E5253542070696E0A00000075
:103880005265736574206361757365642062792085
:10389000504F522F5044520A000000005265736589
:1038A000742063617573656420627920736F667438
:1038B000776172650A000000526573657420636168
:1038C0007573656420627920696E646570656E64E5
:1038D000656E74207761746368646F670A00000026
:1038E0005265736574206361757365642062792025
:1038F00077696E646F77207761746368646F670AB5
:10390000000000005265736574206361757365641F
:10391000206279206C6F7720706F7765720A0000E3
:1039200070B50546FFF7F8FC10B16FF0050404E030
:10393000002415B1284601F025F8204670BD00008E
:1039400010B5FFF7E9FC10B16FF0050409E0064877
:10395000006820B9012004490860002401E04FF00C
:10396000FF34204610BD00004841002070B5FFF72D
:10397000D3FC10B16FF005041FE011480068012866
:1039800019D100BF801F0021002804DB0A07130E95
:103990000C4A135406E00A07150E0B4A00F00F03F9
:1039A0001B1FD55400BF00BF02200549086001F06D
:1039B000CDF8002401E04FF0FF34204670BD000038
:1039C0004841002000E400E018ED00E02DE9FF4749
:1039D00080468946144600200390FFF79DFC00288E
:1039E0004ED1B8F1000F4BD0802618258246471ED5
:1039F00044B3206808B1D4F800A0A06900B1A5695B
:103A00002DB1382D03D8207900F0010018B1002025
:103A100004B0BDE8F087606908B160698608A068F5
:103A200040B1E0685C2805D3206918B1606908B12D
:103A3000012708E0A06830B9E06820B9206910B912
:103A4000002700E00027012F0CD12169A0684B4618
:103A50003246CDE9005102905146404601F044FE05
:103A600003900DE067B903A8B2B24B465146CDE9C9
:103A70000050404601F006FE012801D000200390CE
:103A80000398C5E72DE9F04105460E46164807683C
:103A900016480068001D00F0EDFD681C38B936B10D
:103AA00012480168091D124800F03AFE1AE07C191C
:103AB0000E4800684460BC4207D20C480168091DEA
:103AC0000C48006800F012FE0CE008480168091D6F
:103AD0000948006800F00AFE08480068844201D2E4
:103AE00006480460BDE8F0810C410020F840002049
:103AF0006447002000410020FC40002028410020B5
:103B000010B5044600F018FE24480068401C234904
:103B100008602348006840B92148046008460068EE
:103B200001280DD100F016FA0AE01E48006838B9E5
:103B30001B480068C06AE16A884201D818480460DE
:103B400019480068401C184908600846006860640D
:103B50001649E06A0968884202D91449E06A086097
:103B6000E16A01EB8101124A02EB8100211D00F0A4
:103B7000D7FD00F00BFE0B48006868B108480068EC
:103B8000C06AE16A884207D24FF080500949086054
:103B9000BFF34F8FBFF36F8F10BD000008410020AF
:103BA000F840002014410020244100201041002052
:103BB000B442002004ED00E008B500F0BDFD12485D
:103BC0000068E8B9114800F081FD114800F07EFD61
:103BD0000E48104908600E480F49086000200F4B3E
:103BE0000F4A102100900A2001F068F90649086088
:103BF0000846006820B10BA10348006800F086FE6B
:103C000000F0C4FD08BD00003C41002078470020C2
:103C10008C4700203441002038410020A04700207C
:103C2000F0470020546D72510000000010B516E0FE
:103C300000F082FD0C48C068C468201D00F01AFD29
:103C40000A480068401E0949086009480068401E8B
:103C50000749086000F09AFD204600F05FF804482C
:103C600000680028E4D110BD504700200841002022
:103C70000441002070B504460D46206C70B1216CE3
:103C8000E0680144E160D4E90210884201D3216870
:103C9000E1602846226CE168FCF725FB70BD2DE948
:103CA000F04104460F4615464FF00008A66B206C05
:103CB00048B9206800282CD1A06801F02BFE80466E
:103CC0000020A06025E07DB93946226C6068FCF7D1
:103CD0000AFB216C606808446060D4E901018842F5
:103CE00017D32068606014E03946226CE068FCF766
:103CF000FAFA216CE068411AE1602168E0688842C4
:103D000003D2216CA068411AE160022D01D106B1F5
:103D1000761E701CA0634046BDE8F08110B50446D5
:103D200094F8590030B9206B00F04EFD204600F0A9
:103D30004BFD1AE094F85900012803D1204600F009
:103D400043FD12E094F85900022801D1012000E05F
:103D5000002050B900BF502080F31188BFF34F8F6F
:103D6000BFF36F8F00BF00BFFEE710BD01464A6A78
:103D700022B10A6B1268C2F1380000E000207047DF
:103D80000146084A126812680AB9012200E00022BE
:103D90000A600A6822B9034A1268D268106800E013
:103DA000002070473441002030B54FF4804317485D
:103DB00000F007042CB1C01D20F00700134C041BB9
:103DC0001B1B0246124C22600024114D6C60D0185F
:103DD000083820F007000F4C206000240D4D2D689E
:103DE0006C600C4D2D682C601146441A4C60094CD7
:103DF00024680C60084D4C682C60084D4C682C60A1
:103E00004FF00044064D2C6030BD0000484F0020AC
:103E10004C410020544100205C41002058410020CA
:103E20006841002000BFFFF701FF06480068012835
:103E3000F9D94FF0805004490860BFF34F8FBFF3AA
:103E40006F8FF0E7B442002004ED00E010B50446A7
:103E500054B10020A06020600021E16000231A46D8
:103E60001946204601F0E6F810BD2DE9F04106465E
:103E70000D4617469846069C0DB9246000E0276061
:103E8000E66325640121204601F088F884F84C801F
:103E9000BDE8F0812DE9F05F82460E4690469B46D4
:103EA0000A9F0C9C4FEA8801A522206BFCF72DFA93
:103EB000A8F10100216B01EB800929F0070909F045
:103EC000070008B9012000E0002050B900BF5020D1
:103ED00080F31188BFF34F8FBFF36F8F00BF00BF18
:103EE000FEE786B1002507E0715D04F1340041551D
:103EF000705D00B902E06D1C102DF5D300BF0021EC
:103F00004320015502E0002084F83400382F00D30C
:103F10003727E762E76400202065201D00F0E3FBFF
:103F200004F1180000F0DFFB2461C7F13800A06144
:103F300064620020606584F858005A46514648463D
:103F400000F082FB20600B9808B10B980460BDE87C
:103F5000F09F000010B5002407E004EB84010F4A35
:103F600002EB810000F0B2FB641C382CF5D30C4846
:103F700000F0ACFB0B4800F0A9FB0B4800F0A6FBDF
:103F80000A4800F0A3FB0A4800F0A0FB04480949D6
:103F9000086004480849086010BD0000B4420020D1
:103FA00014470020284700203C47002050470020AD
:103FB00064470020FC4000200041002010B501466D
:103FC000164800E0006803688B42FBD30246436852
:103FD00013448B4204D143684C6823444360014638
:103FE0000A464B6813440468A34211D10C4C036881
:103FF0002468A34208D04B680468646823444B607B
:1040000003681B680B6005E0054B1B680B6001E053
:1040100003680B60884200D0016010BD4C41002055
:10402000544100202DE9F04104460D4616461F4636
:104030004FF0000865602461B5420CD8F01BA169FF
:10404000884202D34FF0010811E0211D09480068A1
:1040500000F04CFB0BE0BE4204D2BD4202D34FF055
:10406000010804E0211D0448006800F03FFB4046C1
:10407000BDE8F081384100203441002070B505468C
:1040800000F05AFBA86B08B9012400E0002400F0FE
:104090007DFB204670BD70B5054600F04DFBA86B5A
:1040A000E96B884201D1012400E0002400F06EFB9E
:1040B000204670BDF8B505460F461A480068C0682E
:1040C000C468201D00F0D6FA94F8280000F004001F
:1040D000E8B1A06941192B463A462046FFF7A2FFF6
:1040E000D8B1002003462A4601460090204601F040
:1040F000BFFD064656B900BF502080F31188BFF3BC
:104100004F8FBFF36F8F00BF00BFFEE705E094F84D
:10411000280020F0010084F828002046216A884702
:10412000F8BD000034410020F0B587B0A0E003984E
:10413000002811DA04AE56B900BF502080F3118870
:10414000BFF34F8FBFF36F8F00BF00BFFEE7D6E90D
:104150000020B168904700BF03980028E6DB059C6B
:10416000606908B9012000E0002010B9201D00F0AE
:1041700081FA02A800F0DEF8054603980A2875D2F5
:10418000DFE800F009050739416306083A4200BF3D
:1041900000BF00BF00BF94F8280040F0010084F881
:1041A00028000498A269811803462A462046FFF792
:1041B00039FFF8B12046216A884794F8280000F0BA
:1041C0000400B8B1002000900498A16942180023AF
:1041D0001946204601F04CFD074657B900BF502054
:1041E00080F31188BFF34F8FBFF36F8F00BF00BF05
:1041F000FEE700BF3BE000BF94F8280020F001007C
:1042000084F8280033E000BF94F8280040F0010053
:1042100084F828000498A061A06908B1012000E09A
:10422000002050B900BF502080F31188BFF34F8F9A
:10423000BFF36F8F00BF00BFFEE7A06941192B4697
:104240002A462046FFF7EEFE11E094F8280000F021
:10425000020018B9204600F0B7FA05E094F82800EB
:1042600020F0010084F8280001E0FFE700BF00BF54
:10427000002203A90448006801F02EF800287FF40A
:1042800056AF07B0F0BD00003C410020F8B5054630
:104290000C4600F0B7FC684600F04CF80646009863
:1042A00020BB44B9B54206D801F024FC314628466B
:1042B000FFF700FF1CE03CB10E480068006808B939
:1042C000012000E000200446A91B22460A4800689D
:1042D00000F032FB01F00EFC50B94FF0805007495E
:1042E0000860BFF34F8FBFF36F8F01E001F002FC56
:1042F000F8BD0000384100203C41002004ED00E002
:104300000A490968096809B9012100E0002121B1C1
:104310004FF0FF31064A116006E004490968C96898
:10432000C868034A4168116070470000FC400020E3
:104330002841002070B5044601F044FA05460748BC
:104340000068854204D200F00BF80120206001E0F3
:104350000020206001480560284670BD44410020CF
:104360002DE9F84334E025480068C0680568234813
:104370000068C068C468201D00F07CF92046216AEE
:10438000884794F8280000F0040008B3A069461993
:10439000AE4207D966602461211D1848006800F00C
:1043A000A5F915E0002003462A4601460090204664
:1043B00001F05EFC074657B900BF502080F311881A
:1043C000BFF34F8FBFF36F8F00BF00BFFEE700BF8B
:1043D0000A480068006808B9012000E000200028B1
:1043E000C1D00648D0F8008005480068034908603D
:1043F0000348C0F80080BDE8F88300003441002085
:10440000384100200E480068401C08B9012000E037
:10441000002050B900BF502080F31188BFF34F8FA8
:10442000BFF36F8F00BF00BFFEE700BF502080F3D7
:104430001188BFF34F8FBFF36F8F00BF00BFFEE740
:104440006C41002008B500BF6846FFF799FC0446A0
:1044500020460099FFF71AFFFFF766FEF4E770B5F4
:10446000044600F069F994F9455010E0606A08B913
:10447000012000E0002038B904F1240001F0EEFA38
:1044800018B100F0B9FA00E003E0681E45B2002D53
:10449000ECDC00BFFF2084F8450000F077F900F065
:1044A0004BF994F9445010E0206908B9012000E06C
:1044B000002048B904F1100001F0D0FA08B100F072
:1044C0009BFA681E45B200E001E0002DECDC00BF65
:1044D000FF2084F8440000F059F970BD2DE9F04147
:1044E00004464FF0000800F08DFB4948006808B909
:1044F000FFF75AFC474800682040002870D1D4B12B
:10450000083404F00700B0B104F00700C0F108005F
:10451000044404F0070008B9012000E0002050B96D
:1045200000BF502080F31188BFF34F8FBFF36F8F10
:1045300000BF00BFFEE7002C52D03748006884421D
:104540004ED8364E3046056801E02E462D68686824
:10455000A04202D228680028F7D12D480068854281
:104560003ED0306800F10808286830606868001B99
:10457000102819D92F1907F0070008B9012000E009
:10458000002050B900BF502080F31188BFF34F8F37
:10459000BFF36F8F00BF00BFFEE76868001B786045
:1045A0006C603846FFF70AFD1B4968680968081AFD
:1045B000194908600846006819490968884203D209
:1045C0001548006816490860124968680968084378
:1045D00068600020286013480068401C114908608A
:1045E00001F088FA08F0070008B9012000E0002077
:1045F00050B900BF502080F31188BFF34F8FBFF335
:104600006F8F00BF00BFFEE74046BDE8F0810000AD
:104610005441002068410020584100204C410020B6
:104620005C410020604100200648006830B1054927
:10463000096801F15000096D491C016001480068DA
:1046400070470000F8400020001F4FF080730360A7
:10465000001F21F001030360001F054B03601438A5
:104660000260001F6FF002030360203870470000F3
:104670000544000801460A69D1E901309860D1E992
:10468000010358605068884201D18868506000205A
:1046900008611068401E106010687047034B03608B
:1046A000034B0B608023136070470000904800208C
:1046B000EC480020034B0360034B0B604FF4807306
:1046C00013607047EC4A0020484B002000F10801BD
:1046D00041604FF0FF31816000F10801C16001616C
:1046E00000210160704700210161704710B502464A
:1046F0000B685C1C0CB9106907E002F1080000E0CF
:104700004068446824689C42FAD944684C604C680C
:10471000A160886041600A611468641C146010BD67
:1047200042684A6093688B60936859609160086141
:1047300003685B1C0360704700BF502080F3118842
:10474000BFF34F8FBFF36F8F00BF0E480068401C50
:104750000C49086008460068012812D10A48006820
:10476000C0B208B9012000E0002050B900BF5020BD
:1047700080F31188BFF34F8FBFF36F8F00BF00BF6F
:10478000FEE770476C41002004ED00E00D48006832
:1047900050B900BF502080F31188BFF34F8FBFF393
:1047A0006F8F00BF00BFFEE706480068401E054946
:1047B00008600846006820B9002080F3118800BF17
:1047C00000BF70476C41002070B506463546002E8C
:1047D00044D0083D2C46224960680968084008B169
:1047E000012000E0002050B900BF502080F3118864
:1047F000BFF34F8FBFF36F8F00BF00BFFEE720688E
:1048000008B9012000E0002050B900BF502080F31B
:104810001188BFF34F8FBFF36F8F00BF00BFFEE75C
:104820000F49606809680840C0B12068B0B90C49F8
:10483000606809688843606000F0E4F909496068CD
:1048400009680844074908602046FFF7B7FB064897
:104850000068401C0449086001F04CF970BD00007C
:1048600068410020584100206441002000204FF0A2
:10487000E02108618861064800684FF47A71B0FB56
:10488000F1F0401E4FF0E0214861072008617047B9
:10489000F440002070B5FBF7DFFC0446102C16D363
:1048A00004F1E02090F8F05315480078854201DBD0
:1048B000012000E0002050B900BF502080F3118893
:1048C000BFF34F8FBFF36F8F00BF00BFFEE70D48F0
:1048D000006800F4E0600C490968884201D80120B2
:1048E00000E0002050B900BF502080F31188BFF3D2
:1048F0004F8FBFF36F8F00BF00BFFEE770BD00009A
:10490000704100200CED00E07441002002460020C0
:104910000BE0084B53F8303033B9064B43F83010F6
:1049200003EBC0035A6002E0401C0828F1D300BF2B
:1049300070470000744200202DE9F04105460E4604
:1049400017462C46FFF7F8FE94F94400401C10B9B6
:10495000002084F8440094F94500401C10B9002060
:1049600084F84500FFF712FFA06B28B93A4631469C
:1049700004F1240000F062F82046FFF770FDBDE866
:10498000F081000070B504460025D4B112480068DB
:1049900008B9012000E0002050B900BF502080F38A
:1049A0001188BFF34F8FBFF36F8F00BF00BFFEE7CB
:1049B00000F028F900212046FFF764F801F09AF88A
:1049C00005463DB94FF0805004490860BFF34F8F52
:1049D000BFF36F8F70BD00003041002004ED00E098
:1049E0000349096801600349096841607047000094
:1049F000204100200C41002001200149086070473F
:104A00001C41002070B504460D4654B900BF50202B
:104A100080F31188BFF34F8FBFF36F8F00BF00BFCC
:104A2000FEE70548016818312046FFF75FFE0121C7
:104A30002846FFF727F870BDF840002070B50546FE
:104A40000E46144655B900BF502080F31188BFF3BD
:104A50004F8FBFF36F8F00BF00BFFEE706480168AE
:104A600018312846FFF75CFE0CB14FF0FF362146A7
:104A70003046FFF707F870BDF84000202DE9F047F9
:104A800006460F4634464FF00109002E55D0206DE2
:104A900050B900BF502080F31188BFF34F8FBFF390
:104AA0006F8F00BF00BFFEE7E06CB84201D23D4609
:104AB00000E0E56CE06AA8423FD0206D01283CD1BF
:104AC0001F480068844201D0012000E0002050B956
:104AD00000BF502080F31188BFF34F8FBFF36F8F5B
:104AE00000BF00BFFEE7D4F82C80E562A06900F0AB
:104AF000004010B9C5F13800A06108EB8801114AE7
:104B000002EB81016069884201D1012000E00020B0
:104B100098B1201DFFF7AEFD0B49E06A0968884295
:104B200002D90949E06A0860E16A01EB8101054A9E
:104B300002EB8100211DFFF7F3FDBDE8F0870000C7
:104B4000F8400020B44200201041002010B586B08B
:104B500000200590049003AA04A905A8FFF79EFD74
:104B60000022DDE904101346CDE9002102901EA1C8
:104B70001F48039A00F0B8FD1E4908600846006807
:104B800008B1012400E00024012C02D101F034F826
:104B90000446012C15D100BF502080F31188BFF3CB
:104BA0004F8FBFF36F8F00BF4FF0FF301249086087
:104BB00001201249086000201149086000F072F8D5
:104BC00010E0601C08B1012000E0002050B900BFD7
:104BD000502080F31188BFF34F8FBFF36F8F00BF5A
:104BE00000BFFEE706B010BD49444C450000000080
:104BF000253E00082C4100202841002014410020BF
:104C00000C41002002480068401C014908607047C0
:104C1000304100201E48006818B101201D4908607D
:104C200034E000201B4908601B4801680CE051B9C2
:104C300000BF502080F31188BFF34F8FBFF36F8FF9
:104C400000BF00BFFEE7491E01EB8100134A52F886
:104C5000200008B9012000E000200028E7D101EB86
:104C600081020E4B03EB820042685268426000F101
:104C700008024368934202D1426852684260426827
:104C8000D268074B1A600448016000BF70470000FB
:104C9000304100201C41002010410020B44200207F
:104CA000F84000201CB5524800685249884201D0A3
:104CB000012000E0002050B900BF502080F311888F
:104CC000BFF34F8FBFF36F8F00BF00BFFEE74848B1
:104CD00000684849491E884201D0012000E00020B8
:104CE00050B900BF502080F31188BFF34F8FBFF33E
:104CF0006F8F00BF00BFFEE73F4908460078019074
:104D0000FF200A4610700846007800909DF80000C9
:104D100000F0F0009DF80020904201D1012000E059
:104D2000002050B900BF502080F31188BFF34F8F8F
:104D3000BFF36F8F00BF00BFFEE79DF8000000F0DB
:104D400050002E4A107007202D4A106009E02C48B0
:104D50000068401E2A4A10609DF800004006000EC0
:104D600000909DF8000000F080008028EFD02448DB
:104D70000068C0F10700042801D1012000E00020F4
:104D800050B900BF502080F31188BFF34F8FBFF39D
:104D90006F8F00BF00BFFEE7194800680002184A85
:104DA00010601046008800F4E0601060124A01981C
:104DB00010700F482030006840F470000C4920311A
:104DC00008600846006840F070400860FFF74EFD3C
:104DD00000200C490860FBF707FA0B48006840F018
:104DE000404009490860FBF7EBF900201CBD0000BA
:104DF00000ED00E071C20F4100E400E070410020CE
:104E0000744100206C41002034EF00E010B500BF79
:104E1000502080F31188BFF34F8FBFF36F8F00BF17
:104E200000F0D6FC18B14FF080500449086000BF74
:104E3000002080F3118800BF10BD000004ED00E0E9
:104E40002DE9F041044601260027224600210120D9
:104E500000F007F805462846FEF7F8FF2846BDE8AB
:104E6000F0812DE9F84305460E4617460DB10120A5
:104E700000E0002050B900BF502080F31188BFF33C
:104E80004F8FBFF36F8F00BF00BFFEE705FB06F833
:104E900008F15000FFF722FB044664B1A14609F176
:104EA0005009002084F846003B464A4631462846D1
:104EB0000094FEF7DAFF2046BDE8F8832DE9F843B9
:104EC00080460E4617461D46DDF82090B8F1000FCB
:104ED00001D0012000E0002050B900BF502080F335
:104EE0001188BFF34F8FBFF36F8F00BF00BFFEE786
:104EF0000DB1012000E0002050B900BF502080F328
:104F00001188BFF34F8FBFF36F8F00BF00BFFEE765
:104F100007B10EB1012000E0002050B900BF5020C1
:104F200080F31188BFF34F8FBFF36F8F00BF00BFB7
:104F3000FEE707B90EB9012000E0002050B900BF1C
:104F4000502080F31188BFF34F8FBFF36F8F00BFE6
:104F500000BFFEE7502000900098502801D10120AA
:104F600000E0002050B900BF502080F31188BFF34B
:104F70004F8FBFF36F8F00BF00BFFEE700BF2C460F
:104F80004CB1012084F846004B463A463146404633
:104F90000094FEF76AFF2046BDE8F88370B5054629
:104FA0000E462C4654B900BF502080F31188BFF341
:104FB0004F8FBFF36F8F00BF00BFFEE7FFF7BCFB53
:104FC000D4E90F12206801FB0200A0600020A0635A
:104FD00020686060E06B401E226C216800FB0211BB
:104FE000E160FF2084F8440084F845009EB9206900
:104FF00008B9012000E00020A8B904F1100000F079
:105000002DFD80B14FF0805009490860BFF34F8FEC
:10501000BFF36F8F07E004F11000FFF757FB04F1B7
:105020002400FFF753FBFFF7B1FB012070BD000028
:1050300004ED00E02DE9FF4383B0064688461D4697
:105040004FF00009344654B900BF502080F3118856
:10505000BFF34F8FBFF36F8F00BF00BFFEE7B8F104
:10506000000F01D1206C08B9012000E0002050B9E8
:1050700000BF502080F31188BFF34F8FBFF36F8FB5
:1050800000BF00BFFEE7022D02D1E06B012801D175
:10509000012000E0002050B900BF502080F31188AB
:1050A000BFF34F8FBFF36F8F00BF00BFFEE700F06D
:1050B00079FB08B9059808B9012000E0002050B933
:1050C00000BF502080F31188BFF34F8FBFF36F8F65
:1050D00000BF00BFFEE700BFFFF72EFBA06BE16B38
:1050E000884201D3022D28D12A4641462046FEF7A8
:1050F000D6FD0746606A08B9012000E0002068B9C3
:1051000004F1240000F0AAFC88B14FF0805032492D
:105110000860BFF34F8FBFF36F8F08E03FB14FF0D0
:1051200080502D490860BFF34F8FBFF36F8FFFF79B
:105130002DFB012007B0BDE8F083059818B9FFF7F3
:1051400025FB0020F6E7B9F1000F04D101A8FFF715
:1051500047FC4FF00109FFF719FBFFF753FDFFF77D
:10516000EBFA94F94400401C10B9002084F8440084
:1051700094F94500401C10B9002084F84500FFF761
:1051800005FB05A901A800F037FAF0B92046FEF7A3
:1051900082FFA0B104F110000599FFF733FC20460F
:1051A000FFF75DF900F0A6FC002895D14FF0805084
:1051B00009490860BFF34F8FBFF36F8F8CE720461C
:1051C000FFF74DF900F096FC86E72046FFF747F918
:1051D00000F090FC0020ADE704ED00E02DE9F84F71
:1051E00007468A4690461E463C4654B900BF5020AA
:1051F00080F31188BFF34F8FBFF36F8F00BF00BFE5
:10520000FEE7BAF1000F01D1206C08B9012000E0DF
:10521000002050B900BF502080F31188BFF34F8F9A
:10522000BFF36F8F00BF00BFFEE7022E02D1E06B1D
:10523000012801D1012000E0002050B900BF50201A
:1052400080F31188BFF34F8FBFF36F8F00BF00BF94
:10525000FEE7FFF71FFB00BF5021EFF3118081F342
:105260001188BFF34F8FBFF36F8F00BF0546A06B50
:10527000E16B884201D3022E25D194F945B0A06B91
:105280000090324651462046FEF709FD0BF1010021
:1052900088B9606A08B9012000E0002050B904F123
:1052A000240000F0DBFB28B1B8F1000F02D0012090
:1052B000C8F8000004E00BF1010040B284F845009A
:1052C0004FF0010901E04FF0000900BF85F311889C
:1052D00000BF4846BDE8F88F2DE9F74183B0054689
:1052E0000E464FF000082C4654B900BF502080F302
:1052F0001188BFF34F8FBFF36F8F00BF00BFFEE772
:105300000EB9206C08B9012000E0002050B900BFA0
:10531000502080F31188BFF34F8FBFF36F8F00BF12
:1053200000BFFEE700F03EFA08B9059808B9012071
:1053300000E0002050B900BF502080F31188BFF377
:105340004F8FBFF36F8F00BF00BFFEE700BFFFF7B7
:10535000F3F9A76BF7B131462046FEF78BFC781EB8
:10536000A063206908B9012000E0002060B904F1C1
:10537000100000F073FB38B14FF080502F490860E7
:10538000BFF34F8FBFF36F8FFFF700FA012006B016
:10539000BDE8F081059818B9FFF7F8F90020F6E7A5
:1053A000B8F1000F04D101A8FFF71AFB4FF0010874
:1053B000FFF7ECF9FFF726FCFFF7BEF994F944007C
:1053C000401C10B9002084F8440094F94500401CAA
:1053D00010B9002084F84500FFF7D8F905A901A805
:1053E00000F00AF9F0B92046FEF748FEA0B104F13A
:1053F00024000599FFF706FB2046FFF730F800F080
:1054000079FB0028A3D14FF080500C490860BFF30E
:105410004F8FBFF36F8F9AE72046FFF720F800F019
:1054200069FB94E72046FFF71AF800F063FB20467B
:10543000FEF724FE00288AD00020A8E704ED00E053
:105440002DE9F34182B005464FF000082C460026B6
:1054500054B900BF502080F31188BFF34F8FBFF3C2
:105460006F8F00BF00BFFEE7206C08B9012000E08D
:10547000002050B900BF502080F31188BFF34F8F38
:10548000BFF36F8F00BF00BFFEE700F08BF908B9D4
:10549000039808B9012000E0002050B900BF502057
:1054A00080F31188BFF34F8FBFF36F8F00BF00BF32
:1054B000FEE700BFFFF740F9A76BFFB1781EA063BE
:1054C000206810B9FFF7B0F8A060206908B9012082
:1054D00000E0002060B904F1100000F0BFFA38B11C
:1054E0004FF0805043490860BFF34F8FBFF36F8F79
:1054F000FFF74CF9012004B0BDE8F081039898B99A
:105500000EB9012000E0002050B900BF502080F308
:105510001188BFF34F8FBFF36F8F00BF00BFFEE74F
:10552000FFF734F90020E6E7B8F1000F04D1684630
:10553000FFF756FA4FF00108FFF728F9FFF762FB73
:10554000FFF7FAF894F94400401C10B9002084F8E1
:10555000440094F94500401C10B9002084F845002F
:10556000FFF714F903A9684600F046F840BB20464F
:10557000FEF784FDF0B1206838B9FFF7DDF8A068C8
:1055800000F01AFA0646FFF701F904F12400039926
:10559000FFF738FA2046FEF762FF00F0ABFA00286A
:1055A00088D14FF0805013490860BFF34F8FBFF38D
:1055B0006F8F7FE72046FEF752FF00F09BFA79E7F6
:1055C0002046FEF74CFF00F095FA2046FEF756FD08
:1055D0000028EED05EB1FFF7AFF82046FEF7C6FB1D
:1055E00007463946A068FFF749FAFFF7CFF80020D1
:1055F00081E7000004ED00E070B505460C4655B9A2
:1056000000BF502080F31188BFF34F8FBFF36F8F1F
:1056100000BF00BFFEE754B900BF502080F31188DF
:10562000BFF34F8FBFF36F8F00BF00BFFEE7FFF7E1
:1056300083F8124802686868131A2068401C08B989
:10564000002617E00E4928680968884204D0686877
:10565000904201D801260DE02068984207D92068C1
:10566000C01A20602846FFF7BBF9002602E00020A0
:1056700020600126FFF78AF8304670BD0C410020FB
:10568000204100202DE9FF4F85B08046894617460E
:10569000DDE912ABB800FEF721FF064656B15C20EB
:1056A000FEF71CFF04460CB1266304E03046FFF70A
:1056B0008BF800E000248CB1002084F85900CDE97B
:1056C00000ABCDE902403A4649464046089BFEF70A
:1056D000E1FB2046FEF714FA012501E04FF0FF350B
:1056E000284609B0BDE8F08F2DE9F04F85B0074698
:1056F000884691469A46DDE90EB6109C0EB101200F
:1057000000E0002050B900BF502080F31188BFF3A3
:105710004F8FBFF36F8F00BF00BFFEE70CB10120BA
:1057200000E0002050B900BF502080F31188BFF383
:105730004F8FBFF36F8F00BF00BFFEE75C20039069
:1057400003985C2801D1012000E0002050B900BF7F
:10575000502080F31188BFF34F8FBFF36F8F00BFCE
:1057600000BFFEE700BFB4B1AEB125462C462E63A4
:10577000022085F85900002004A953464A46CDE985
:1057800000B1CDE9025041463846FEF783FB28467A
:10579000FEF7B6F901E000200490049805B0BDE8DA
:1057A000F08F00000549096809B9012005E00449A6
:1057B000096809B9022000E0002070471441002068
:1057C0003041002001490868704700000C4100206A
:1057D0002DE9F0414FF000084348006800287BD1D4
:1057E00042480068451C4148056015BB40480068B8
:1057F000006808B9012000E0002050B900BF502027
:1058000080F31188BFF34F8FBFF36F8F00BF00BFCE
:10581000FEE737480768374800683549086035486B
:10582000076035480068401C33490860FEF768FD92
:1058300000BF3248006885423BD300BF2C48006857
:10584000006808B9012000E0002020B14FF0FF30CF
:105850002A4908602CE026480068C068C468666869
:10586000B54202D22548066022E0201DFEF702FF65
:10587000A06A18B104F11800FEF7FCFE2049E06AA6
:105880000968884202D91E49E06A0860E16A01EBB2
:1058900081011C4A02EB8100211DFEF741FF1A49DC
:1058A000E06A0968C96A8842C8D34FF00108C5E7B1
:1058B00000BF15480068C06A00EB8000114951F82C
:1058C0002000012801D94FF001081048006808B1F4
:1058D0004FF0010805E0FFE70D480068401C0C4947
:1058E00008604046BDE8F081304100200C410020B6
:1058F000FC400020004100202041002028410020E1
:1059000010410020B4420020F84000201C4100203B
:105910001841002070B505462C460026002D43D0C6
:1059200022480068844201D1012000E0002050B9E3
:1059300000BF502080F31188BFF34F8FBFF36F8FEC
:1059400000BF00BFFEE7206D50B900BF502080F3BC
:105950001188BFF34F8FBFF36F8F00BF00BFFEE70B
:10596000206D401E2065E16CE06A88421CD0206DED
:10597000D0B9201DFEF77EFEE06CE062E06AC0F167
:105980003800A0610A49E06A0968884202D90849DA
:10599000E06A0860E16A01EB8101064A02EB8100DE
:1059A000211DFEF7BDFE0126304670BDF8400020E7
:1059B00010410020B442002070B505462C46002658
:1059C000002D42D02249E06A0968C96A884235D26E
:1059D000A06900F0004028B91D480068C06AC0F105
:1059E0003800A061E16A01EB81011A4A02EB8101F2
:1059F0006069884201D1012000E00020C0B1201D73
:105A0000FEF738FE12480068C06AE0621249E06A98
:105A10000968884202D91049E06A0860E16A01EB2E
:105A200081010C4A02EB8100211DFEF779FE03E0A3
:105A300007480068C06AE062012606E00449E06C9D
:105A40000968C96A884200D20126304670BD00004C
:105A5000F8400020B44200201041002070B50646F6
:105A6000F068C46854B900BF502080F31188BFF3B8
:105A70004F8FBFF36F8F00BF00BFFEE704F1180028
:105A8000FEF7F8FD15480068A0B9201DFEF7F2FDED
:105A90001349E06A0968884202D91149E06A08603E
:105AA000E16A01EB81010F4A02EB8100211DFEF743
:105AB00037FE04E004F118010B48FEF731FE0B49F4
:105AC000E06A0968C96A884204D9012501200849A9
:105AD000086000E00025284670BD0000304100202D
